:020000040800F2
:1000000030040020450100084903000845030008AA
:1000100047030008FD010008C108000800000000B7
:100020000000000000000000000000000D060008B5
:10003000FF01000800000000E9030008ED060008C9
:100040005F0100085F0100085F0100085F01000810
:100050005F0100085F0100085F0100085F01000800
:100060005F0100085F0100085F0100085F010008F0
:100070005F0100085F0100085F0100085F010008E0
:100080005F0100085F0100085F0100085F010008D0
:100090005F0100085F0100085F0100085F010008C0
:1000A0005F0100085F0100085F0100085F010008B0
:1000B0005F0100085F0100085F0100085F010008A0
:1000C0005F0100085F0100085F0100085F01000890
:1000D0005F0100085F0100085F0100085F01000880
:1000E0005F0100085F0100085F0100085F01000870
:1000F0005F0100085F0100085F0100085F01000860
:100100005F0100085F0100085F0100085F0100084F
:100110005F0100085F0100085F0100085F0100083F
:100120005F0100085F0100085F0100085F0100082F
:10013000DFF80CD000F018F800480047B5090008B7
:10014000300400200648804706480047FEE7FEE7E7
:10015000FEE7FEE7FEE7FEE7FEE7FEE7FEE7FEE777
:100160003D07000831010008064C074D06E0E06835
:1001700040F0010394E8070098471034AC42F6D3EE
:10018000FFF7DAFF1C0A00083C0A0008F8B5012155
:10019000082000F02BF910248DF8034003258DF87A
:1001A00002502020ADF80000134E6946304600F0A2
:1001B0003DF88DF803408DF802500120ADF80000A5
:1001C0006946304600F032F88DF803408DF8025051
:1001D000E401ADF800406946304600F027F82021E0
:1001E000304600F076F80121304600F072F82146E2
:1001F000304600F06EF8F8BD000C0140FEE7704795
:1002000004490A6822F010020A600A6802430A6080
:100210007047000000200240034A116801F03801D5
:100220000143116070470000002002402DE9F041B9
:100230000022CC7804F00F03E40601D58C78234328
:100240000C784FF00F0714F0FF0F4FF0010C1CD08B
:1002500005680CFA02F40E882640A64211D19600D9
:1002600007FA06F825EA080503FA06F848EA05053C
:10027000CE78282E02D0482E02D002E0446100E061
:100280000461521C082AE4D305600A88FF2A1ED99B
:100290004568002202F108060CFA06F40E88264092
:1002A000A64210D1960007FA06F825EA080503FAD7
:1002B00006F848EA0505CE78282E00D14461CE78AC
:1002C000482E00D10461521C082AE3D34560BDE8E2
:1002D000F081016170477CB50546002001900090D7
:1002E00000F092F84FF48034204600F02DF900F031
:1002F00075F900900098012800D0FEE71020FFF764
:100300007FFF0220FFF788FF002000F013F9002094
:1003100000F040F94FF4806000F032F929462046A1
:1003200000F048F9012000F03FF9392000F0E2F830
:100330000028FAD0022000F047F900F0F3F808286E
:10034000FBD17CBDFEE7FEE7704708B54FF4A06027
:1003500000F040F825208DF8000001208DF8010004
:100360008DF802008DF80300684600F001F808BD22
:1003700070B50F23C27801260178002A1ED0144AD6
:10038000126802F4E062C2F5E062120AC2F10404EB
:10039000D3404578A54082781A402A43120101F1E2
:1003A000E02181F80024007800F01F018E40400910
:1003B000800000F1E020C0F8006170BD01F01F0076
:1003C00086404809800000F1E020C0F8806170BDDF
:1003D0000CED00E002490843024908607047000044
:1003E0000000FA050CED00E070470000054A002906
:1003F00003D0916901439161704791698143916193
:1004000070470000001002400C48016841F00101F3
:10041000016041680A4A114041600168094A11407F
:100420000160016821F480210160416821F4FE012E
:1004300041604FF41F0181607047000000100240CE
:100440000000FFF8FFFFF6FE10B5264A516801F0E4
:100450000C01254B002927D0042927D0082927D0B3
:100460000360516801F0F0010909204B5C5C0168F0
:10047000E1404160546804F4E064240A1C5D21FA00
:1004800004F48460546804F46054E40A1B5DD940A9
:10049000C160526802F44042920B144B1B1F9A5CDD
:1004A000B1FBF2F1016110BD0360DAE70360D8E748
:1004B000516801F47011536803F48033022404EB93
:1004C000914133B153689B0307D5094B59430160F0
:1004D000C7E7074B59430160C3E7034B594301602A
:1004E000BFE700000010024000127A001800002050
:1004F00000093D00034600205909094A01290AD094
:1005000002290AD0516A03F01F02012393400B42D3
:1005100000D0012070471168F5E7116AF3E7000089
:10052000001002400248406800F00C0070470000D4
:1005300000100240034A516821F0F001014351606C
:1005400070470000001002400C490A6822F4803213
:100550000A600A6822F480220A60B0F5803F07D062
:10056000B0F5802F03D1086840F4A02008607047E0
:10057000086840F4803008607047000000100240B6
:10058000034A516821F4E061014351607047000063
:1005900000100240034A516821F4605141EAC00052
:1005A0005060704700100240014908667047000023
:1005B00000004242034B5A6822F47C120843104365
:1005C0005860704700100240034A516821F003014F
:1005D00001435160704700000010024018B5002030
:1005E00000904FF4A0643120FFF784FF0099491C6C
:1005F00000910099A14201D00028F4D03120FFF7EA
:1006000079FF08B1012018BD002018BD704700F027
:1006100001B800000CB50022019200922748016841
:1006200041F4803101604FF4A063016801F40031AE
:1006300000910199491C0191009911B901999942C0
:10064000F3D10168890302D50121009100E00092F5
:100650000099012930D11A490A6842F010020A6053
:100660000A6822F003020A600A6842F002020A6085
:100670004168416041684160416841F48061416086
:10068000416821F47C114160416841F4E811416006
:10069000016841F08071016001688901FCD5416801
:1006A00021F003014160416841F00201416041686D
:1006B000C1F381010229FAD10CBD000000100240F3
:1006C0000020024001B50848009901604FF0E02287
:1006D000116941F00101116101680029FCD1106923
:1006E00020F00100106108BD2800002000F04EB885
:1006F0000F4810490068B0FBF1F04FF0E021B0F175
:10070000807F01D301200BE020F07F40401E486134
:10071000094AF0201070002088610720086100203D
:1007200000B1FEE7086920F0010008617047000091
:100730000000002040420F0023ED00E010B50F48FC
:10074000016841F00101016041680D4A11404160BA
:1007500001680C4A11400160016821F480210160A8
:10076000416821F4FE0141604FF41F018160FFF7F1
:100770004EFF05494FF00060086010BD00100240B8
:100780000000FFF8FFFFF6FE08ED00E003480168F7
:10079000002902D00168491E01607047280000202E
:1007A000002904D0818941F40051818170478189F9
:1007B00021F40051818170470246002012880A42CC
:1007C00000D00120704710B540F66A13C1F3421300
:1007D00001F01F040121A140012B07D0022B07D0FB
:1007E00014303AB102680A43026010BD0C30F8E7D9
:1007F0001030F6E702688A43026010BD30B585B05C
:1008000004460D46208A4CF6FF710840E9880143F2
:100810002182A0894EF6F3110840A9882A89114344
:100820006A8902431143A181A08A4FF6FF41084023
:10083000A9890143A1826846FFF706FE1D4884424C
:1008400001D1039800E00298A189090408D500EBC2
:10085000C00101EB001029684900B0FBF1F007E08E
:1008600000EBC00101EB001029688900B0FBF1F03A
:100870006422B0FBF2F109010B096FF018056B431C
:1008800000EB8300A3891D044FF0320307D503EB6F
:10089000C000B0FBF2F000F00700084306E003EBF5
:1008A0000010B0FBF2F000F00F000843208105B00B
:1008B00030BD000000380140C1F30801818070475D
:1008C000FEE7000010B586B001210420FFF78EFD81
:1008D00001218803FFF78AFD4FF40070ADF8140082
:1008E00018208DF8170003208DF81600184C05A964
:1008F0002046FFF79BFC2115ADF8141004218DF85C
:10090000171005A92046FFF791FC4FF4E130019044
:100910000020ADF80800ADF80A00ADF80C00ADF805
:1009200010000C20ADF80E000A4C01A92046FFF77C
:1009300065FFFFF70AFD012240F225512046FFF72F
:1009400042FF01212046FFF72BFF06B010BD00003B
:10095000000801400038014010B504462046FFF76A
:10096000ABFF80212046FFF727FF0028F9D010BDFC
:1009700070B506460D4600243046295DFFF7ECFFB2
:10098000285D0028F8D140213046FFF715FF0028E8
:10099000F9D070BD02E008C8121F08C1002AFAD1C0
:1009A00070477047002001E001C1121F002AFBD1EF
:1009B000704700004FF4E010FFF78DFCFFF798FE42
:1009C0004FF4A060FFF706FDFFF77CFFFFF7DEFBAB
:1009D0000AA10F48FFF7CCFF0E4C0F4D206880F0A6
:1009E000200121602846FFF76DFE216881F020017B
:1009F00021602846FFF766FEF0E70000B3CCD0F296
:100A0000B3F5CABCBBAFCDEAB1CF2F722F6E0000D9
:100A1000003801400C0C014040420F003C0A000825
:100A2000000000202C00000094090008680A00085B
:100A30002C00002004040000A409000800A24A04BD
:100A4000000000000000000001020304060708097E
:100A5000020406080000000001020304010203046E
:080A6000060708090000000070
:0400000508000131BD
:00000001FF
