:020000040800F2
:100000003804002045010008170C0008130C0008F4
:10001000150C0008FD080008D111000800000000C0
:100020000000000000000000000000000D0F0008AC
:10003000B90A000800000000B90C0008ED0F000824
:100040005F0100085F0100085F0100085F01000810
:100050005F0100085F0100085F0100085F01000800
:100060005F0100085F0100085F0100085F010008F0
:100070005F0100085F0100085F0100085F010008E0
:100080005F0100085F0100085F0100085F010008D0
:100090005F0100085F0100085F0100085F010008C0
:1000A0005F0100085F0100085F0100085F010008B0
:1000B0005F0100085F0100085F0100085F010008A0
:1000C0005F0100085F0100085F0100085F01000890
:1000D0005F0100085F0100085F0100085F01000880
:1000E0005F0100085F0100085F0100085F01000870
:1000F0005F0100085F0100085F0100085F01000860
:100100005F0100085F0100085F0100085F0100084F
:100110005F0100085F0100085F0100085F0100083F
:100120005F0100085F0100085F0100085F0100082F
:10013000DFF80CD000F082FA004800474D160008A6
:10014000380400200648804706480047FEE7FEE7DF
:10015000FEE7FEE7FEE7FEE7FEE7FEE7FEE7FEE777
:100160003D100008310100082DE9FE4F804681EA6C
:100170000300C00F0C46009021F0004123F0004521
:10018000B8EB0200A94105D24046214690461C46E4
:100190000B46024623F00040104347D0270DC7F31B
:1001A0000A00C3F30A510290401A019040286BDA0A
:1001B000C3F3130040F4801B0098924620B1002343
:1001C000D2EB030A63EB0B0B01985946C0F14002D6
:1001D000504600F0A4F906460D4650465946019A8D
:1001E00000F0BCF910EB08006141002487EA1152CD
:1001F00084EAE7731A4340D0009A62B3019A012A55
:100200004FEA075215DC001B61EB02014FF0004280
:1002100002EA0752CDE90042001C41F58011324646
:100220002B4600F0BCF903B0BDE8F08F40462146F4
:10023000F9E7001B61EB0201001C41F58013001877
:100240005B412018A2F5001747EB030140EAD57087
:10025000B6196D4111E06D084FEA360645EAC075E2
:100260004FEA0752001B61EB0201001C41F58011AF
:1002700049084FEA30000019514132462B4603B07D
:10028000BDE8F04F00F07CB9009801224000002347
:10029000D0EB020263EBE073009821464FEAE07472
:1002A000B8EB000061EB0401E9E783F000435BE792
:1002B00081F0004158E72DE9FE4F81EA030404F084
:1002C000004421F0004100944FF0000B23F0004364
:1002D00050EA01045ED052EA03045BD0C3F30A542F
:1002E000C1F30A552C44A4F2F3340194A0FB025448
:1002F000C1F3130141F48011C3F3130343F48013DA
:1003000001FB024400FB034E840A970A44EA81542D
:1003100047EA8357A4FB076802958D0A05FB07850A
:100320004FEA932C04FB0C542705029D4FEA065814
:1003300047EA1637B5EB08056EEB070C870E920EF1
:1003400047EA811742EA8312A7FB0201B6EB0B01D1
:1003500064EB00042B0D43EA0C335E1844EB1C5095
:10036000DA465146E7FB0201C5F313044FEA0B33AB
:1003700043EA14534FEA0432019C43EA0603A4F112
:100380000C040294009CCDE900B400F008F903B01D
:10039000BDE8F08F00200146F9E72DE9F04D81EA34
:1003A000030404F0004B21F0004514464FF0000A0E
:1003B00023F0004150EA050220D054EA01021DD08A
:1003C000C5F30A570246C5F31303C1F31300C1F383
:1003D0000A5640F4801543F48013A7EB0608101B5F
:1003E000D64608F2FD3873EB050002D308F1010888
:1003F00001E092185B41B8F1000F03DA00200146DA
:10040000BDE8F08D00204FF48011064684460EE0D2
:10041000171B73EB050705D3121B63EB050306439C
:100420004CEA010C49084FEA300092185B4150EA4F
:100430000107EDD152EA030012D082EA040083EAF8
:100440000501084305D0101BAB4106D20122002351
:1004500006E000224FF0004302E06FF0010253106B
:100460001AEB06004CEB085110EB0A0041EB0B01B4
:10047000BDE8F04D00F084B870B521F000430343AF
:100480000CD0C1F30A550024D5EB040564EB04033A
:10049000D617AD1AB34102DB0020014670BD20180B
:1004A00041EB025170BD0EB540F233410291002183
:1004B000CDE900110A460B4600F071F803B000BD0B
:1004C000C1F30A5210B5C1F3130140F2FF3341F4F6
:1004D00080119A4201DA002010BD40F233439A4263
:1004E000A2F2334203DC524200F028F810BD9040E3
:1004F00010BD30B50B46014600202022012409E042
:1005000021FA02F59D4205D303FA02F5491B04FACC
:1005100002F52844151EA2F10102F1DC30BD202AAB
:1005200004DB203A00FA02F1002070479140C2F14A
:10053000200320FA03F3194390407047202A04DB7C
:10054000203A21FA02F00021704721FA02F3D0404C
:10055000C2F120029140084319467047202A06DB69
:10056000CB17203A41FA02F043EAE07306E041FA81
:1005700002F3D040C2F1200291400843194670476F
:1005800010B5141E73F1000408DA401C41F100019B
:1005900092185B411A4301D120F0010010BD2DE9F2
:1005A000F04D92469B4611B1B1FA81F202E0B0FAE9
:1005B00080F220329046FFF7B2FF04460F4640EA31
:1005C0000A0041EA0B0153465A46084313D011462C
:1005D00053EA010019D0C8F140025046FFF7AEFFC0
:1005E00005460E46504659464246FFF798FF0843D7
:1005F00005D0012004E020463946BDE8F08D0020FA
:10060000054346EAE0762C4337430A986305E40A3B
:10061000A0EB08000022FD0A44EA47540A3002D544
:1006200000200146E9E7010510196941DDE90845A7
:1006300000196941BDE8F04DA2E70000064C074DE6
:1006400006E0E06840F0010394E8070098471034A2
:10065000AC42F6D3FFF770FDD4170008F41700087A
:1006600010B50121084600F033FB0121BDE8104020
:10067000480200F03BBB000070B590B02B480590DD
:100680002B480690002407940125089509940A94A4
:1006900028020B9080000C9020200D9000020E90FC
:1006A0000F94244E05A9304600F0E9F901213046A7
:1006B00000F0D8F900948DF804508DF805504FF4EF
:1006C0006020029003948DF81050184C69464C3C01
:1006D000204600F057F84FF4404000F0EFFA0723AF
:1006E00001221021204600F071F8012000F0BEF830
:1006F0000121204600F02CF80121204600F01CF8D2
:10070000204600F09DF8204600F035F80028FAD188
:10071000204600F0A6F8204600F026F80028FAD17E
:100720000121204600F091F810B070BD4C2401402A
:100730003000002008000240002904D0816841F008
:10074000010181607047816821F00101816070477B
:10075000002904D0816841F480718160704781680C
:1007600021F4807181607047014600208968490743
:1007700000D501207047014600208968090700D58F
:100780000120704710B542680E4B1A400C790B6877
:1007900042EA04221343436082680B4B1A40D1E9BA
:1007A000024323434C7942EA440213438360C26A02
:1007B00022F47002097C491EC9B242EA0151C162A9
:1007C00010BD0000FFFEF0FFFDF7F1FF70B507263A
:1007D00009290AD9C568A1F10A0404EB4404A6401A
:1007E000B543A3401D43C56007E0056901EB410423
:1007F000A640B543A3401D4305611F23072A09D224
:10080000446B521E02EB820293409C4391400C4386
:10081000446370BD0D2A09D2046BD21F02EB820221
:1008200093409C4391400C43046370BDC46A0D3AED
:1008300002EB820293409C4391400C43C46270BD22
:10084000816841F0080181607047002904D0816807
:1008500041F4A00181607047816821F4A0018160AA
:100860007047816841F004018160704706490028A3
:1008700004D0086840F4000008607047086820F45D
:10088000000008607047000008240140F8B501210D
:10089000082000F02BFA10248DF8034003258DF872
:1008A00002502020ADF80000134E6946304600F09B
:1008B0001BF98DF803408DF802500120ADF80000BF
:1008C0006946304600F010F98DF803408DF802506B
:1008D000E401ADF800406946304600F005F92021FA
:1008E000304600F05DF90121304600F059F921460B
:1008F000304600F055F9F8BD000C0140FEE700005D
:1009000010B50121402000F0F1F900F01BF8BDE81E
:1009100010404021014800F043B900000018014098
:1009200008B548208DF803004020ADF800000320F2
:100930008DF802006946024800F0D6F808BD0000B4
:100940000018014008B510208DF803004020ADF8D4
:10095000000003208DF802006946024800F0C4F848
:1009600008BD0000001801402DE9F04100250024D9
:10097000144F01264021384600F009F90028F9D02B
:10098000282000F01FFB4021384600F000F9012824
:100990000BD0C4F1070006FA00F08543641CE4B2F2
:1009A000082CE7D32846BDE8F081C4F1070006FA19
:1009B00000F0C0B205434021384600F0E8F80128B5
:1009C000F9D0EBE70018014070B50446FFF7BAFF15
:1009D000234D4021284600F0E1F844F2506000F039
:1009E000F1FA4021284600F0DBF81E2000F0EAFA78
:1009F000FFF796FF4021284600F0C9F808B1002013
:100A000070BD4021284600F0C2F80028F9D04021EE
:100A1000284600F0BCF80128F9D0FFF7A5FF2070A8
:100A2000FFF7A2FF6070FFF79FFFA070FFF79CFF2A
:100A3000E070FFF799FF2071FFF784FF40212846FF
:100A400000F0AEF820786178E2780844A17811448B
:100A500008442179884201D1012070BD002070BD79
:100A600000180140002904D0016841F00101016033
:100A7000704701684FF6FE7211400160704730B553
:100A8000026847F6F0739A430C6A8B682343D1E9F6
:100A900004452C4323438C692343CC6923434C6A8C
:100AA00023438C6A234313430360CA6842600A6885
:100AB00082604968C16030BD7047000004490A681F
:100AC00022F010020A600A6802430A6070470000C0
:100AD00000200240034A116801F03801014311600F
:100AE00070470000002002402DE9F0410022CC7840
:100AF00004F00F03E40601D58C7823430C784FF003
:100B00000F0714F0FF0F4FF0010C1CD005680CFA12
:100B100002F40E882640A64211D1960007FA06F884
:100B200025EA080503FA06F848EA0505CE78282ED6
:100B300002D0482E02D002E0446100E00461521C61
:100B4000082AE4D305600A88FF2A1ED945680022D6
:100B500002F108060CFA06F40E882640A64210D1CF
:100B6000960007FA06F825EA080503FA06F848EAA7
:100B70000505CE78282E00D14461CE78482E00D1CC
:100B80000461521C082AE3D34560BDE8F0810246A7
:100B9000002092680A4200D00120704741617047EE
:100BA000016170477CB5054600200190009000F07F
:100BB000ABF84FF48034204600F046F900F08EF98F
:100BC00000900098012800D0FEE71020FFF776FF84
:100BD0000220FFF77FFF002000F02CF9002000F03A
:100BE00059F94FF4806000F04BF92946204600F097
:100BF00061F9012000F058F9392000F0FBF80028D5
:100C0000FAD0022000F060F900F00CF90828FBD1BE
:100C10007CBDFEE7FEE7704708B54FF4A06000F02A
:100C200041F825208DF8000001208DF801008DF895
:100C300002008DF80300684600F002F808BD0000CD
:100C400070B50F23C27801260178002A1ED0144AFD
:100C5000126802F4E062C2F5E062120AC2F1040412
:100C6000D3404578A54082781A402A43120101F109
:100C7000E02181F80024007800F01F018E40400937
:100C8000800000F1E020C0F8006170BD01F01F009D
:100C900086404809800000F1E020C0F8806170BD06
:100CA0000CED00E00249084302490860704700006B
:100CB0000000FA050CED00E070470000034A51689F
:100CC00021F4404101435160704700000010024090
:100CD000054A002903D051690143516170475169A8
:100CE000814351617047000000100240054A00290D
:100CF00003D091690143916170479169814391618A
:100D000070470000001002400C48016841F00101EA
:100D1000016041680A4A114041600168094A114076
:100D20000160016821F480210160416821F4FE0125
:100D300041604FF41F0181607047000000100240C5
:100D40000000FFF8FFFFF6FE10B5264A516801F0DB
:100D50000C01254B002927D0042927D0082927D0AA
:100D60000360516801F0F0010909204B5C5C0168E7
:100D7000E1404160546804F4E064240A1C5D21FAF7
:100D800004F48460546804F46054E40A1B5DD940A0
:100D9000C160526802F44042920B144B1B1F9A5CD4
:100DA000B1FBF2F1016110BD0360DAE70360D8E73F
:100DB000516801F47011536803F48033022404EB8A
:100DC000914133B153689B0307D5094B59430160E7
:100DD000C7E7074B59430160C3E7034B5943016021
:100DE000BFE700000010024000127A001800002047
:100DF00000093D00034600205909094A01290AD08B
:100E000002290AD0516A03F01F02012393400B42CA
:100E100000D0012070471168F5E7116AF3E7000080
:100E2000001002400248406800F00C0070470000CB
:100E300000100240034A516821F0F0010143516063
:100E400070470000001002400C490A6822F480320A
:100E50000A600A6822F480220A60B0F5803F07D059
:100E6000B0F5802F03D1086840F4A02008607047D7
:100E7000086840F4803008607047000000100240AD
:100E8000034A516821F4E06101435160704700005A
:100E900000100240034A516821F4605141EAC00049
:100EA000506070470010024001490866704700001A
:100EB00000004242034B5A6822F47C12084310435C
:100EC0005860704700100240034A516821F0030146
:100ED00001435160704700000010024018B5002027
:100EE00000904FF4A0643120FFF784FF0099491C63
:100EF00000910099A14201D00028F4D03120FFF7E1
:100F000079FF08B1012018BD002018BD704700F01E
:100F100001B800000CB50022019200922748016838
:100F200041F4803101604FF4A063016801F40031A5
:100F300000910199491C0191009911B901999942B7
:100F4000F3D10168890302D50121009100E00092EC
:100F50000099012930D11A490A6842F010020A604A
:100F60000A6822F003020A600A6842F002020A607C
:100F70004168416041684160416841F4806141607D
:100F8000416821F47C114160416841F4E8114160FD
:100F9000016841F08071016001688901FCD54168F8
:100FA00021F003014160416841F002014160416864
:100FB000C1F381010229FAD10CBD000000100240EA
:100FC0000020024001B50848009901604FF0E0227E
:100FD000116941F00101116101680029FCD110691A
:100FE00020F00100106108BD2C00002000F056B870
:100FF0000F4810490068B0FBF1F04FF0E021B0F16C
:10100000807F01D301200BE020F07F40401E48612B
:10101000094AF02010700020886107200861002034
:1010200000B1FEE7086920F0010008617047000088
:101030000000002040420F0023ED00E010B50F48F3
:10104000016841F00101016041680D4A11404160B1
:1010500001680C4A11400160016821F4802101609F
:10106000416821F4FE0141604FF41F018160FFF7E8
:101070004EFF05494FF00060086010BD00100240AF
:101080000000FFF8FFFFF6FE08ED00E010B5FFF7E7
:10109000E7FABDE81040FFF7EFBA00000348016827
:1010A000002902D00168491E016070472C00002011
:1010B000002904D0818941F40051818170478189E0
:1010C00021F40051818170470246002012880A42B3
:1010D00000D00120704710B540F66A13C1F34213E7
:1010E00001F01F040121A140012B07D0022B07D0E2
:1010F00014303AB102680A43026010BD0C30F8E7C0
:101100001030F6E702688A43026010BD30B585B042
:1011100004460D46208A4CF6FF710840E9880143D9
:101120002182A0894EF6F3110840A9882A8911432B
:101130006A8902431143A181A08A4FF6FF4108400A
:10114000A9890143A1826846FFF7FEFD1D4884423C
:1011500001D1039800E00298A189090408D500EBA9
:10116000C00101EB001029684900B0FBF1F007E075
:1011700000EBC00101EB001029688900B0FBF1F021
:101180006422B0FBF2F109010B096FF018056B4303
:1011900000EB8300A3891D044FF0320307D503EB56
:1011A000C000B0FBF2F000F00700084306E003EBDC
:1011B0000010B0FBF2F000F00F000843208105B0F2
:1011C00030BD000000380140C1F308018180704744
:1011D000FEE7000010B586B001210420FFF786FD70
:1011E00001218803FFF782FD4FF40070ADF8140071
:1011F00018208DF8170003208DF81600184C05A94B
:101200002046FFF771FC2115ADF8141004218DF86C
:10121000171005A92046FFF767FC4FF4E130019055
:101220000020ADF80800ADF80A00ADF80C00ADF8EC
:1012300010000C20ADF80E000A4C01A92046FFF763
:1012400065FFFFF7E9FC012240F225512046FFF738
:1012500042FF01212046FFF72BFF06B010BD000022
:10126000000801400038014010B504462046FFF751
:10127000ABFF80212046FFF727FF0028F9D010BDE3
:1012800070B506460D4600243046295DFFF7ECFF99
:10129000285D0028F8D140213046FFF715FF0028CF
:1012A000F9D070BD0FB4054B10B503A9044A0298DC
:1012B00000F018F810BC5DF814FB000029160008B7
:1012C0003400002002E008C8121F08C1002AFAD129
:1012D00070477047002001E001C1121F002AFBD1B6
:1012E000704700002DE9FF4F8BB088460546002669
:1012F00006E025280BD0DDE90D1290476D1C761C09
:1013000028780028F5D10FB03046BDE8F08F0024D2
:10131000A146A2460122AE4900E0044315F8013F70
:10132000203B02FA03F00842F7D128782A2810D08F
:101330006FF02F022878A0F13001092915D809EBA8
:10134000890102EB410144F0020400EB01096D1C2C
:10135000F0E758F8041B5FEA010903D544F4005490
:10136000C9F1000944F002046D1C28782E2817D119
:1013700015F8010F44F004042A280ED06FF02F0254
:101380002878A0F1300109290AD80AEB8A0102EB7A
:10139000410100EB010A6D1CF2E758F804AB6D1C2B
:1013A00028786C280FD006DC4C2817D068280DD080
:1013B0006A2814D104E0742810D07A280FD10DE0E7
:1013C00044F400140AE044F4801401E044F44014AE
:1013D0006978814202D104F580146D1C6D1C287857
:1013E000692865D006DC00288DD0632827D06428C2
:1013F00006D15DE06E2808D073282AD0752877D0F2
:10140000DDE90D129047761CE0E0C4F3025002289B
:1014100009D003280DD0D8F8001004280DD00E6094
:1014200008F10408D2E0D8F80010F217C1E9006210
:10143000F6E7D8F800100E80F2E70E70F0E718F823
:10144000041B8DF8001000208DF80100EB460120F0
:1014500003E058F804BB4FF0FF3061074FF000077E
:1014600001D40AE07F1C57450DDA8742FADB1BF8EE
:1014700007100029F6D106E07F1C8742FCDB1BF831
:1014800007100029F8D1DDE90D23A9EB07008146FB
:10149000214600F0B1F83044C61904E0DDE90D1230
:1014A0001BF8010B90477F1EF8D22146484688E082
:1014B00058F8040BC4F302514FF00A0B032900D172
:1014C00000B2042900D140B2002802DA40422D21A6
:1014D00002E0210505D52B218DF82410012104E01F
:1014E00006E0E10710D02021F6E708AF089113E0ED
:1014F00058F8040BC4F302514FF00A0B032900D132
:1015000080B2042900D1C0B20021EEE75946FEF7AF
:10151000F0FF303107F8011D0028F7D1ADEB0700CF
:1015200000F1200B600702D524F4803401E04FF075
:10153000010ADA4502DDAAEB0B0000E0002082463A
:1015400000EB0B0108980144A9EB01000A90E003AD
:1015500006D4DDE90D2321460A9800F04DF8064433
:101560004FF0000908E009A911F80900DDE90D12A2
:10157000904709F10109761C08998945F3DBE003DE
:101580000CD5DDE90D2321460A9800F035F8064414
:1015900004E0DDE90D1230209047761CBAF100011D
:1015A000AAF1010AF5DC05E0DDE90D1217F8010BDF
:1015B0009047761CBBF10001ABF1010BF4DC0A98FB
:1015C0002146DDE90D2300F005F806446D1C97E681
:1015D000092801002DE9F041044600251E46174662
:1015E000880404D405E039462020B0476D1C641EF1
:1015F000F9D52846BDE8F0812DE9F04104460025E3
:101600001E469046C80301D5302700E020278804F5
:1016100004D505E041463846B0476D1C641EF9D537
:101620002846BDE8F081000070B50446064DE1B2E1
:101630002846FFF7C9FD80212846FFF745FD002811
:10164000F9D0204670BD0000003801400EB54FF4BF
:10165000E010FFF7A7FAFFF7CBFC4FF4A060FFF70D
:1016600021FBFFF7B7FDFFF711F9FFF749F9FFF786
:101670000DFD2CA13048FFF703FE304C304D314EAC
:10168000DFF8C480DFF8C4A0DFF8C4B04FF06637DD
:101690006FF00B09206880F0200020602846FFF7DB
:1016A00091FC206880F0200020602846FFF78AFC2B
:1016B0003088FEF7F8FE3A464346FEF7FCFD4A4600
:1016C000FEF7DAFE52465B46FEF7F2FD0022214BA2
:1016D000FEF7F1FD4FF033321F4BFEF75EFE0022A6
:1016E0001E4BFEF741FDFEF7EBFE81B21C48018068
:1016F0001CA0FFF7D7FD01A8FFF766F9012803D06A
:1017000020A0FFF7CFFDC5E79DF8070000909DF8EA
:1017100006309DF805209DF804101FA0FFF7C2FDBC
:10172000B8E70000B3CCD0F2B3F5CABCBBAFCDEA8A
:10173000B1CF2F722F6E0000003801400C0C014019
:1017400040420F003000002066660A40E17A14AE85
:1017500047E1F63F00408F403333114000003940ED
:10176000280000200D0A2054686520494320637535
:101770007272656E742074656D3D2025336420A1FE
:10178000E60D0A0052656164204448543131204519
:1017900052524F52210D0A000D0AB6C1C8A1444849
:1017A000543131B3C9B9A6210D0A0D0ACAAAB6C867
:1017B000CEAA25642E256420A3A5524820A3ACCE32
:1017C000C2B6C8CEAA2025642E2564A1E6200D0A43
:1017D00000000000F417000800000020380000009E
:1017E000C41200082C180008380000200004000073
:1017F000D412000800A24A0400000000000000000B
:10180000010203040607080902040608000000009C
:101810000102030401020304060708090000000096
:0C182000000000000000000000000000BC
:0400000508000131BD
:00000001FF
