:020000040800F2
:1000000018040020450100084903000845030008C2
:1000100047030008FD0100086D060008000000000D
:10002000000000000000000000000000D9040008EB
:10003000FF0100080000000061030008B905000886
:100040005F0100085F0100085F0100085F01000810
:100050005F0100085F0100085F0100085F01000800
:100060005F0100085F0100085F0100085F010008F0
:100070005F0100085F0100085F0100085F010008E0
:100080005F0100085F0100085F0100085F010008D0
:100090005F0100085F0100085F0100085F010008C0
:1000A0005F0100085F0100085F0100085F010008B0
:1000B0005F0100085F0100085F0100085F010008A0
:1000C0005F0100085F0100085F0100085F01000890
:1000D0005F0100085F0100085F0100085F01000880
:1000E0005F0100085F0100085F0100085F01000870
:1000F0005F0100085F0100085F0100085F01000860
:100100005F0100085F0100085F0100085F0100084F
:100110005F0100085F0100085F0100085F0100083F
:100120005F0100085F0100085F0100085F0100082F
:10013000DFF80CD000F018F8004800478D060008E2
:10014000180400200648804706480047FEE7FEE7FF
:10015000FEE7FEE7FEE7FEE7FEE7FEE7FEE7FEE777
:100160000906000831010008064C074D06E0E0686A
:1001700040F0010394E8070098471034AC42F6D3EE
:10018000FFF7DAFFD0060008F0060008F8B50121F5
:10019000082000F0E7F810248DF8034003258DF8BF
:1001A00002502020ADF80000134E6946304600F0A2
:1001B0003DF88DF803408DF802500120ADF80000A5
:1001C0006946304600F032F88DF803408DF8025051
:1001D000E401ADF800406946304600F027F82021E0
:1001E000304600F076F80121304600F072F82146E2
:1001F000304600F06EF8F8BD000C0140FEE7704795
:1002000004490A6822F010020A600A6802430A6080
:100210007047000000200240034A116801F03801D5
:100220000143116070470000002002402DE9F041B9
:100230000022CC7804F00F03E40601D58C78234328
:100240000C784FF00F0714F0FF0F4FF0010C1CD08B
:1002500005680CFA02F40E882640A64211D19600D9
:1002600007FA06F825EA080503FA06F848EA05053C
:10027000CE78282E02D0482E02D002E0446100E061
:100280000461521C082AE4D305600A88FF2A1ED99B
:100290004568002202F108060CFA06F40E88264092
:1002A000A64210D1960007FA06F825EA080503FAD7
:1002B00006F848EA0505CE78282E00D14461CE78AC
:1002C000482E00D10461521C082AE3D34560BDE8E2
:1002D000F081016170477CB50546002001900090D7
:1002E00000F04EF84FF48034204600F093F800F010
:1002F000DBF800900098012800D0FEE71020FFF7FF
:100300007FFF0220FFF788FF002000F079F800202F
:1003100000F0A6F84FF4806000F098F829462046D7
:1003200000F0AEF8012000F0A5F8392000F048F800
:100330000028FAD0022000F0ADF800F059F80828A3
:10034000FBD17CBDFEE7FEE7704700000249084391
:1003500002490860704700000000FA050CED00E05B
:1003600070470000054A002903D09169014391615B
:10037000704791698143916170470000001002400D
:100380000C48016841F00101016041680A4A1140CE
:1003900041600168094A11400160016821F480212F
:1003A0000160416821F4FE0141604FF41F0181604A
:1003B00070470000001002400000FFF8FFFFF6FE4B
:1003C000034600205909094A01290AD002290AD006
:1003D000516A03F01F02012393400B4200D0012019
:1003E00070471168F5E7116AF3E70000001002405A
:1003F0000248406800F00C00704700000010024006
:10040000034A516821F0F001014351607047000038
:10041000001002400C490A6822F480320A600A681F
:1004200022F480220A60B0F5803F07D0B0F5802F1B
:1004300003D1086840F4A02008607047086840F4C1
:10044000803008607047000000100240034A516885
:1004500021F4E06101435160704700000010024048
:10046000034A516821F4605141EAC000506070476E
:100470000010024001490866704700000000424237
:10048000034B5A6822F47C120843104358607047AB
:1004900000100240034A516821F0030101435160FA
:1004A000704700000010024018B5002000904FF483
:1004B000A0643120FFF784FF0099491C0091009946
:1004C000A14201D00028F4D03120FFF779FF08B114
:1004D000012018BD002018BD704700F001B80000D1
:1004E0000CB50022019200922748016841F4803146
:1004F00001604FF4A063016801F40031009101999B
:10050000491C0191009911B901999942F3D10168EF
:10051000890302D50121009100E000920099012990
:1005200030D11A490A6842F010020A600A6822F0C3
:1005300003020A600A6842F002020A6041684160F0
:1005400041684160416841F480614160416821F443
:100550007C114160416841F4E8114160016841F05B
:100560008071016001688901FCD5416821F00301B7
:100570004160416841F0020141604168C1F381017D
:100580000229FAD10CBD00000010024000200240F8
:1005900001B50848009901604FF0E022116941F06F
:1005A0000101116101680029FCD1106920F00100EE
:1005B000106108BD1400002000F04EB80F4810492B
:1005C0000068B0FBF1F04FF0E021B0F1807F01D383
:1005D00001200BE020F07F40401E4861094AF020D6
:1005E00010700020886107200861002000B1FEE73C
:1005F000086920F001000861704700000000002039
:1006000040420F0023ED00E010B50F48016841F0B3
:100610000101016041680D4A1140416001680C4AC6
:1006200011400160016821F480210160416821F4DA
:10063000FE0141604FF41F018160FFF74EFF054945
:100640004FF00060086010BD001002400000FFF88D
:10065000FFFFF6FE08ED00E003480168002902D024
:100660000168491E0160704714000020FEE702E0A7
:1006700008C8121F08C1002AFAD17047704700202D
:1006800001E001C1121F002AFBD170474FF4E010B6
:10069000FFF721FEFFF792FF4FF4A060FFF756FE31
:1006A000FFF774FD084C094D206880F0200121609F
:1006B0002846FFF76DFF216881F020012160284660
:1006C000FFF766FFF0E700000C0C014040420F000E
:1006D000F006000800000020180000006E06000868
:1006E0000807000818000020000400007E0600082B
:1006F00000A24A0400000000000000000102030400
:080700000607080900000000D3
:0400000508000131BD
:00000001FF
