:020000040800F2
:10000000A005002045010008850B0008810B0008B1
:10001000830B0008E10700086511000800000000DC
:10002000000000000000000000000000790E000841
:100030007B080008000000009D0B0008590F000815
:100040005F0100085F0100085F0100085F01000810
:100050005F0100085F0100085F0100085F01000800
:100060005F0100085F0100085F0100085F010008F0
:100070005F0100085F0100085F0100085F010008E0
:100080005F0100085F0100085F0100085F010008D0
:100090005F0100085F0100085F0100085F010008C0
:1000A0005F0100085F0100085F0100085F010008B0
:1000B0005F0100085F0100085F0100085F010008A0
:1000C0005F0100085F0100085F0100085F01000890
:1000D0005F0100085F0100085F0100085F01000880
:1000E0005F0100085F0100085F0100085F01000870
:1000F0005F0100085F0100085F0100085F01000860
:100100005F0100085F0100085F0100085F0100084F
:100110005F0100085F0100085F0100085F0100083F
:100120005F0100085F0100085F0100085F0100082F
:10013000DFF80CD000F042FB00480047BB1300087A
:10014000A00500200648804706480047FEE7FEE776
:10015000FEE7FEE7FEE7FEE7FEE7FEE7FEE7FEE777
:10016000A90F000831010008F0B480EA0102D40FA1
:100170004200B2EB410F02D20246084611464A0045
:1001800042D0C30DDDB2C1F3C752AD1A202D35DA0E
:10019000C1F3160141F4000204B15242C5F1200638
:1001A00002FA06F12A411044B3EBD05F23D0C4B168
:1001B000012DA0EBC35009DCF0BC4FF0004202EA75
:1001C000C352DBB200F5000000F06CBA400000F151
:1001D000807000EBC350A0F1807040EAD1704900FC
:1001E00009E0490841EAC071A0EBC35000F50000E6
:1001F000400800EBC350F0BC00F04BBA6142012252
:1002000002EB4101001BF6E7F0BC704781F00041B2
:10021000AAE780F00040A7E780EA010210B502F0EB
:100220000043400022D04A001FD0010E01EB1261B2
:10023000C0F35600C2F3560240F4000042F400023C
:10024000A0FB022000047F39140400D0401C50EAB7
:10025000124001D44000491EC2B20C0604EBD0107B
:10026000401C4008802A02D003E0002010BD20F08E
:100270000100002900DA0020184310BD30B480EAE4
:10028000010202F0004530F0004221F0004013D09E
:1002900090B1C30DD40DC2F31601C0F31600E41AD9
:1002A00041F4000140F400027D34914201D3641C0A
:1002B00000E04900002C02DA30BC002070474FF407
:1002C00000000023914201D3891A034340084FEAFA
:1002D0004101F7D151B1914202D14FF0004105E007
:1002E00002D24FF0010101E06FF0010103EBC450B5
:1002F000284430BC00F0CDB92DE9FE4F804681EA9C
:100300000300C00F0C46009021F0004123F000458F
:10031000B8EB0200A94105D24046214690461C4652
:100320000B46024623F00040104347D0270DC7F389
:100330000A00C3F30A510290401A019040286BDA78
:10034000C3F3130040F4801B0098924620B10023B1
:10035000D2EB030A63EB0B0B01985946C0F1400244
:10036000504600F065F906460D4650465946019A3A
:1003700000F07DF910EB08006141002487EA11527A
:1003800084EAE7731A4340D0009A62B3019A012AC3
:100390004FEA075215DC001B61EB02014FF00042EF
:1003A00002EA0752CDE90042001C41F580113246B5
:1003B0002B4600F0B4F903B0BDE8F08F404621466B
:1003C000F9E7001B61EB0201001C41F580130018E6
:1003D0005B412018A2F5001747EB030140EAD570F6
:1003E000B6196D4111E06D084FEA360645EAC07551
:1003F0004FEA0752001B61EB0201001C41F580111E
:1004000049084FEA30000019514132462B4603B0EB
:10041000BDE8F04F00F074B90098012240000023BD
:10042000D0EB020263EBE073009821464FEAE074E0
:10043000B8EB000061EB0401E9E783F000435BE700
:1004400081F0004158E72DE9F04D81EA030404F002
:10045000004B21F0004514464FF0000A23F0004104
:1004600050EA050220D054EA01021DD0C5F30A5714
:100470000246C5F31303C1F31300C1F30A5640F457
:10048000801543F48013A7EB0608101BD64608F22C
:10049000FD3873EB050002D308F1010801E0921862
:1004A0005B41B8F1000F03DA00200146BDE8F08D92
:1004B00000204FF48011064684460EE0171B73EBB4
:1004C000050705D3121B63EB050306434CEA010C39
:1004D00049084FEA300092185B4150EA0107EDD11C
:1004E00052EA030012D082EA040083EA05010843BD
:1004F00005D0101BAB4106D20122002306E00022EA
:100500004FF0004302E06FF0010253101AEB0600B7
:100510004CEB085110EB0A0041EB0B01BDE8F04D2C
:1005200000F0EEB896230022114600F0BBB80EB5DD
:10053000C10F80EAE0700844CA07002140F233434B
:100540008DE80E000A460B4600F0E9F803B000BD46
:1005500000F0004220F00040C10DC0F3160040F44E
:1005600000007F2901DA00207047962903DCC1F1E1
:100570009601C84001E096398840002AF4D04042F4
:10058000704720F00040C10DC0F3160040F4000099
:100590007F2901DA00207047962903DCC1F196011A
:1005A000C840704796398840704700F0004230F0EC
:1005B00000400AD0C10D01F56071C0F3160042EA97
:1005C0000151C2084007114370470020014670479F
:1005D00001F0004330B421F0004150EA010206D09E
:1005E0000A0DA2F56072C1F31301002A02DC30BCCF
:1005F00000207047440F44EAC104C100E01830BC39
:1006000000EBC25000F045B8002801DBC0F100400B
:10061000002901DBC1F1004181427047002801DB64
:10062000C0F10040002901DBC1F100418842704760
:10063000202A04DB203A00FA02F1002070479140A2
:10064000C2F1200320FA03F3194390407047202A97
:1006500004DB203A21FA02F00021704721FA02F36C
:10066000D040C2F120029140084319467047202A29
:1006700006DBCB17203A41FA02F043EAE07306E0CA
:1006800041FA02F3D040C2F12002914008431946DA
:1006900070470029A8BF7047401C490008BF20F0E0
:1006A0000100704710B4B0FA80FC00FA0CF050EA78
:1006B000010404BF10BC704749B1CCF1200421FAF9
:1006C00004F411FA0CF118BF012121430843A3EBF4
:1006D0000C01CB1D4FEA00614FEA102042BF002001
:1006E00010BC704700EBC35010440029A4BF10BCDD
:1006F0007047401C490008BF20F0010010BC704743
:1007000010B5141E73F1000408DA401C41F1000119
:1007100092185B411A4301D120F0010010BD2DE970
:10072000F04D92469B4611B1B1FA81F202E0B0FA67
:1007300080F220329046FFF77BFF04460F4640EAE6
:100740000A0041EA0B0153465A46084313D01146AA
:1007500053EA010019D0C8F140025046FFF777FF75
:1007600005460E46504659464246FFF761FF08438C
:1007700005D0012004E020463946BDE8F08D002078
:10078000054346EAE0762C4337430A986305E40ABA
:10079000A0EB08000022FD0A44EA47540A3002D5C3
:1007A00000200146E9E7010510196941DDE9084526
:1007B00000196941BDE8F04DA2E70000064C074D65
:1007C00006E0E06840F0010394E807009847103421
:1007D000AC42F6D3FFF7B0FC94160008B41600083C
:1007E000FEE70000C10002D50249086070470249D7
:1007F000486070470404024000000240002904D011
:10080000016841F001010160704701684FF6FE7216
:10081000114001607047000002460020D10002D55F
:100820000449096801E004490968114200D0012027
:1008300070470000000402400000024030B502682A
:1008400047F6F0739A430C6A8B682343D1E9044559
:100850002C4323438C692343CC6923434C6A2343B1
:100860008C6A234313430360CA6842600A6882604B
:100870004968C16030BD41607047704704490A68EB
:1008800022F010020A600A6802430A607047000002
:1008900000200240034A116801F038010143116051
:1008A00070470000002002402DE9F0410022CC7882
:1008B00004F00F03E40601D58C7823430C784FF045
:1008C0000F0714F0FF0F4FF0010C1CD005680CFA55
:1008D00002F40E882640A64211D1960007FA06F8C7
:1008E00025EA080503FA06F848EA0505CE78282E19
:1008F00002D0482E02D002E0446100E00461521CA4
:10090000082AE4D305600A88FF2A1ED94568002218
:1009100002F108060CFA06F40E882640A64210D111
:10092000960007FA06F825EA080503FA06F848EAE9
:100930000505CE78282E00D14461CE78482E00D10E
:100940000461521C082AE3D34560BDE8F08141618F
:1009500070477CB5054600200190009000F04AF9F0
:100960004FF48034204600F08FF900F0D7F9009062
:100970000098012800D0FEE71020FFF77FFF02203B
:10098000FFF788FF002000F075F9002000F0A2F9C1
:100990004FF4806000F094F92946204600F0AAF94F
:1009A000012000F0A1F9392000F044F90028FAD024
:1009B000022000F0A9F900F055F90828FBD17CBD10
:1009C0002DE9FF5F8246DDE90E781E465046FFF7AF
:1009D000BFFD3C2190FBF1F0062190FBF1F201FB01
:1009E00012094846FFF7A3FD04460D465046FFF79F
:1009F000DCFD0022604BFFF726FD22462B46FFF769
:100A00001CFDFFF7E5FD04464FF07E5B584601995B
:100A1000FFF7FCFB0299FFF7FFFB05462046019913
:100A2000FFF7FAFB5946FFF7F4FB0299FFF7F4FBD7
:100A3000824621465846FFF7E9FB0199FFF7ECFB98
:100A40005946FFF7E6FB0299FFF7E6FB83464B4C5E
:100A5000B9F1060F1AD2DFE809F0031B32496077BB
:100A600021460298FFF7D8FBFFF78BFD3070214637
:100A70005846FFF7D1FBFFF784FD38702146284622
:100A8000FFF7CAFBFFF77DFD88F80000BDE8FF9F78
:100A900021465046FFF7C0FBFFF773FD307021463B
:100AA0000298FFF7B9FBFFF76CFD38702146284626
:100AB000FFF7B2FBFFF765FD88F80000E6E7214687
:100AC0002846FFF7A9FBFFF75CFD3070214602982E
:100AD000FFF7A2FBFFF755FD387021465846FFF798
:100AE0009BFBFFF74EFD88F80000CFE72146284624
:100AF000FFF792FBFFF745FD307021465046FFF7A8
:100B00008BFBFFF73EFD387021460298FFF784FB10
:100B1000FFF737FD88F80000B8E721465846FFF791
:100B20007BFBFFF72EFD307021462846FFF774FB54
:100B3000FFF727FD387021460298FFF76DFBFFF79E
:100B400020FD88F80000A1E721460298FFF764FB2A
:100B5000FFF717FD307021462846FFF75DFBFFF7D2
:100B600010FD387021465046FFF756FBFFF709FD90
:100B700088F800008AE7000000004E4000007F4334
:100B8000FEE7FEE77047000002490843024908609B
:100B9000704700000000FA050CED00E0704700000F
:100BA000054A002903D051690143516170475169D9
:100BB000814351617047000000100240054A00293E
:100BC00003D0D1690143D1617047D1698143D161BB
:100BD0007047000000100240054A002903D09169C7
:100BE00001439161704791698143916170470000B1
:100BF000001002400C48016841F0010101604168A9
:100C00000A4A114041600168094A114001600168C7
:100C100021F480210160416821F4FE0141604FF41C
:100C20001F01816070470000001002400000FFF8C3
:100C3000FFFFF6FE034600205909094A01290AD0A0
:100C400002290AD0516A03F01F02012393400B428C
:100C500000D0012070471168F5E7116AF3E7000042
:100C6000001002400248406800F00C00704700008D
:100C700000100240034A516821F0F0010143516025
:100C800070470000001002400C490A6822F48032CC
:100C90000A600A6822F480220A60B0F5803F07D01B
:100CA000B0F5802F03D1086840F4A0200860704799
:100CB000086840F48030086070470000001002406F
:100CC000034A516821F4E06101435160704700001C
:100CD00000100240034A516821F4605141EAC0000B
:100CE00050607047001002400149086670470000DC
:100CF00000004242034B5A6822F47C12084310431E
:100D00005860704700100240034A516821F0030107
:100D100001435160704700000010024018B50020E8
:100D200000904FF4A0643120FFF784FF0099491C24
:100D300000910099A14201D00028F4D03120FFF7A2
:100D400079FF08B1012018BD002018BD2DE9F05F22
:100D5000884616461C460A9FFFF7E4FB434D29468A
:100D6000FFF78CFA81464046FFF7DCFB2946FFF788
:100D700085FA82463046FFF7D5FB2946FFF77EFA13
:100D8000804642465146484600F02CFB0546424606
:100D90005146484600F03CFB01462846FFF736FA2C
:100DA000064616F0FF4F4FF0000B15D04946284677
:100DB000FFF72AFC22D141465046FFF72FFC0ED800
:100DC00041465046FFF722FA3146FFF757FA2849C5
:100DD000FFF722FA20603AE0C4F800B037E041465D
:100DE0005046FFF713FA3146FFF748FA2049FFF75C
:100DF00013FA2049FFF7B8F9206028E05146284649
:100E0000FFF702FC0FD149464046FFF7FFF9314694
:100E1000FFF734FA4FF08041FFF7A6F91449FFF7C6
:100E2000FBF9206013E041462846FFF7EDFB0ED1A9
:100E300051464846FFF7EAF93146FFF71FFA4FF0EF
:100E40008141FFF791F90A49FFF7E6F9206015F0B3
:100E5000FF4F08D029463046FFF710FA38600B984C
:100E60000560BDE8F09FC7F800B0F8E700007F43D9
:100E7000000070420000B443704700F001B8000069
:100E80000CB50022019200922748016841F480319C
:100E900001604FF4A063016801F4003100910199F1
:100EA000491C0191009911B901999942F3D1016846
:100EB000890302D50121009100E0009200990129E7
:100EC00030D11A490A6842F010020A600A6822F01A
:100ED00003020A600A6842F002020A604168416047
:100EE00041684160416841F480614160416821F49A
:100EF0007C114160416841F4E8114160016841F0B2
:100F00008071016001688901FCD5416821F003010D
:100F10004160416841F0020141604168C1F38101D3
:100F20000229FAD10CBD000000100240002002404E
:100F300001B50848009901604FF0E022116941F0C5
:100F40000101116101680029FCD1106920F0010044
:100F5000106108BD1400002000F0FAB80F481049D5
:100F60000068B0FBF1F04FF0E021B0F1807F01D3D9
:100F700001200BE020F07F40401E4861094AF0202C
:100F800010700020886107200861002000B1FEE792
:100F9000086920F00100086170470000000000208F
:100FA00040420F0023ED00E010B50F48016841F00A
:100FB0000101016041680D4A1140416001680C4A1D
:100FC00011400160016821F480210160416821F431
:100FD000FE0141604FF41F018160FFF74EFF05499C
:100FE0004FF00060086010BD001002400000FFF8E4
:100FF000FFFFF6FE08ED00E0002904D0018841F073
:10100000010101807047018821F0010101807047D2
:10101000002A03D082890A438281704782898A43E9
:101020008281704770B5028C22F480720284028C37
:101030008388848B24F0700424F003040D882543F6
:1010400022F400720E894FF6FF7404EA0626164356
:101050004A8804EA02223243114EB04202D0114EB5
:10106000B04217D122F400664A8904EA02223243D0
:1010700022F480668A8804EA0222324323F48053F1
:1010800023F400538E8904EA06161E43CB8904EA32
:101090000313334383808583C9888187028470BDAD
:1010A000002C014000340140828B22F008020A43E8
:1010B0008283704730B502881B4C1C4DA0420DD076
:1010C000A8420BD0B0F1804F08D0194B984205D000
:1010D000184B984202D0184B984203D122F070036B
:1010E0004A881A43154B984206D0154B984203D0B4
:1010F00022F44073CA881A4302808A8882850A884B
:101100000285A0420AD0A84208D00E4A904205D0DB
:101110000D4A904202D00D4A904201D1097A0186CF
:101120000121818230BD0000002C014000340140CB
:101130000004004000080040000C00400010004087
:1011400000140040004001400044014000480140BC
:1011500003480168002902D00168491E01607047F8
:1011600014000020FEE700002DE9F04188B006469B
:10117000C1F307450795C1F307200690CAB205924F
:1011800002A903ABCDE90031014604AB2846FFF7C5
:10119000DDFD0025DFF89480254F38F81500FFF7B6
:1011A000C1F9029005A906AACDE900210246DDE9B0
:1011B000031007ABFFF704FC9DF818009DF81C1006
:1011C000000440EA01229DF814000243002013E0CD
:1011D000002400EB400302FA04F1090201D53C218E
:1011E00000E01E2104EBC30C27F81C10641CE4B2C1
:1011F000182CF0D3401CC0B2B042E9D300EB400041
:10120000002104EBC000401C27F81010F0B200F0E1
:1012100085F84CF25030FFF78BFE6D1CADB2B5F582
:10122000967FBAD308B0BDE8F08100003C140008F6
:101230001800002070B594B0054601210820FFF782
:10124000CBFC01210220FFF7B9FC01210846FFF782
:10125000A7FC18218DF84F100126ADF84C60032132
:101260008DF84E1013A92848FFF71EFB0024ADF897
:101270004040ADF842404FF47A704543234800683F
:10128000B0FBF5F0401EADF84400ADF84640204DEF
:1012900010A92846FFF70EFF6021ADF83010ADF819
:1012A0003260ADF838400CA92846FFF7BBFE082194
:1012B0002846FFF7F9FE00212846FFF79DFE012290
:1012C000D1022846FFF7A4FE11483C300190114896
:1012D000029010200390C020049005948020069076
:1012E0004000079080000890099480000A900B94B9
:1012F000094C01A92046FFF7A1FA00212046FFF77B
:101300007DFA14B070BD0000000C01400000002008
:1013100000040040180000201C00024070B500EBE3
:1013200040000121114C01EBC0012046FFF7A3FA58
:1013300001212046FFF762FA0D4D01212846FFF7F3
:101340005BFE2020FFF768FA0128FAD10021204631
:10135000FFF754FA2020FFF745FA00212846FFF74F
:101360004BFEBDE8704000F005B800001C000240D4
:101370000004004010B500210648FFF73DFE0121A2
:101380000548FFF7E4FABDE810404FF47A70FFF724
:10139000CFBD000000040040000C014002E008C87E
:1013A000121F08C1002AFAD170477047002001E0DF
:1013B00001C1121F002AFBD170474FF4E010FFF764
:1013C000C8FAFFF7CBFD4FF4A060FFF7DDFB4FF449
:1013D0004870FFF72FFF4FF47F0421460820FFF7E6
:1013E000C3FEFAE770B504460E4615463146204660
:1013F000FFF714F901D2204600E0304604462946A2
:101400002046FFF70BF901D2204670BD284670BD7B
:1014100070B504460E46154631462046FFF7F4F8EF
:1014200001D2204600E03046044629462046FFF718
:10143000EBF801D2204670BD284670BDFF00FF00CA
:10144000FF00FF00FF00FF00FF00FF00FF00FF00A4
:10145000FF00F700F700F700F700F700F700F700CC
:10146000F700F700F700F700F700F700F700EE00CD
:10147000EE00EE00EE00EE00EE00EE00EE00EE00FC
:10148000E500E500E500E500E500E500E500DD003C
:10149000DD00DD00DD00DD00D500D500D500D50084
:1014A000D500CD00CD00CD00CD00C500C500C500E4
:1014B000BE00BE00BE00B700B700B700B000B0006D
:1014C000AA00AA00A400A4009E009E009800980014
:1014D000920092008D008800880083007E007E00CC
:1014E0007A00750071006D00690069006500610097
:1014F0005E005A005700540051004E004B00480057
:101500004600430041003E003C003A0038003600EF
:101510003400360038003A003C003E0041004300F1
:10152000460048004B004E005100540057005A003E
:101530005E006100650069006D00710075007A0051
:101540007E00830088008D00920098009E00A40019
:10155000AA00B000B700BE00C500CD00D500DD0078
:10156000E500EE00F700FF00FF00F700EE00E500E9
:10157000DD00D500CD00C500BE00B700B000AA0058
:10158000A4009E00980092008D00880083007E00D9
:101590007A00750071006D006900650061005E00F1
:1015A0005A005700540051004E004B0048004600BE
:1015B000430041003E003C003A0038003600340051
:1015C000360038003A003C003E004100430046002F
:1015D00048004B004E005100540057005A005E0076
:1015E00061006500690069006D00710075007A0096
:1015F0007E007E008300880088008D0092009200AB
:10160000980098009E009E00A400A400AA00AA00D2
:10161000B000B000B700B700B700BE00BE00BE000B
:10162000C500C500C500CD00CD00CD00CD00D50062
:10163000D500D500D500D500DD00DD00DD00DD00E2
:10164000DD00E500E500E500E500E500E500E5007A
:10165000EE00EE00EE00EE00EE00EE00EE00EE001A
:10166000EE00F700F700F700F700F700F700F700CB
:10167000F700F700F700F700F700F700F700FF00AA
:10168000FF00FF00FF00FF00FF00FF00FF00FF0062
:10169000FF00FF00B4160008000000201800000042
:1016A0009C130008CC1600081800002088050000D4
:1016B000AC13000800A24A04000000000000000073
:0C16C000010203040607080900000000F6
:0400000508000131BD
:00000001FF
