:020000040800F2
:100000003004002045010008EF040008EB0400085C
:10001000ED04000829020008690A00080000000039
:10002000000000000000000000000000B50700080C
:1000300091030008000000009105000895080008E1
:100040005F0100085F0100085F0100085F01000810
:100050005F0100085F0100085F0100085F01000800
:100060005F0100085F0100085F0100085F010008F0
:100070005F0100085F0100085F0100085F010008E0
:100080005F0100085F0100085F0100085F010008D0
:100090005F0100085F0100085F0100085F010008C0
:1000A0005F0100085F0100085F0100085F010008B0
:1000B0005F0100085F0100085F0100085F010008A0
:1000C0005F0100085F0100085F0100085F01000890
:1000D0005F0100085F0100085F0100085F01000880
:1000E0005F0100085F0100085F0100085F01000870
:1000F0005F0100085F0100085F0100085F01000860
:100100005F0100085F0100085F0100085F0100084F
:100110005F0100085F0100085F0100085F0100083F
:100120005F0100085F0100085F0100085F0100082F
:10013000DFF80CD000F02EF800480047F50C00085E
:10014000300400200648804706480047FEE7FEE7E7
:10015000FEE7FEE7FEE7FEE7FEE7FEE7FEE7FEE777
:10016000E50800083101000830B50B4601460020C3
:100170002022012409E021FA02F59D4205D303FA69
:1001800002F5491B04FA02F52844151EA2F10102EA
:10019000F1DC30BD064C074D06E0E06840F001039D
:1001A00094E8070098471034AC42F6D3FFF7C4FF39
:1001B000DC0D0008FC0D0008F8B50121082000F056
:1001C000E9F910248DF8034003258DF80250202012
:1001D000ADF80000134E6946304600F0F1F88DF896
:1001E00003408DF802500120ADF80000694630460A
:1001F00000F0E6F88DF803408DF80250E401ADF808
:1002000000406946304600F0DBF82021304600F01F
:1002100033F90121304600F02FF92146304600F035
:100220002BF9F8BD000C0140FEE7000010B50121DC
:10023000402000F0AFF900F01BF8BDE8104040216D
:10024000014800F019B900000018014008B5482025
:100250008DF803004020ADF8000003208DF8020067
:100260006946024800F0ACF808BD000000180140E3
:1002700008B510208DF803004020ADF800000320E1
:100280008DF802006946024800F09AF808BD0000A7
:10029000001801402DE9F04100250024144F0126EB
:1002A0004021384600F0DFF80028F9D0282000F07F
:1002B000DDFA4021384600F0D6F801280BD0C4F111
:1002C000070006FA00F08543641CE4B2082CE7D36B
:1002D0002846BDE8F081C4F1070006FA00F0C0B27C
:1002E00005434021384600F0BEF80128F9D0EBE77D
:1002F0000018014070B50446FFF7BAFF234D4021B6
:10030000284600F0B7F844F2506000F0AFFA402100
:10031000284600F0B1F81E2000F0A8FAFFF796FF7B
:100320004021284600F09FF808B1002070BD402110
:10033000284600F098F80028F9D04021284600F01F
:1003400092F80128F9D0FFF7A5FF2070FFF7A2FF70
:100350006070FFF79FFFA070FFF79CFFE070FFF752
:1003600099FF2071FFF784FF4021284600F084F8B0
:1003700020786178E2780844A17811440844217912
:10038000884201D1012070BD002070BD00180140DD
:100390007047000004490A6822F010020A600A68E7
:1003A00002430A607047000000200240034A1168BF
:1003B00001F0380101431160704700000020024045
:1003C0002DE9F0410022CC7804F00F03E40601D5BA
:1003D0008C7823430C784FF00F0714F0FF0F4FF089
:1003E000010C1CD005680CFA02F40E882640A642C7
:1003F00011D1960007FA06F825EA080503FA06F86F
:1004000048EA0505CE78282E02D0482E02D002E018
:10041000446100E00461521C082AE4D305600A88A4
:10042000FF2A1ED94568002202F108060CFA06F4DC
:100430000E882640A64210D1960007FA06F825EA53
:10044000080503FA06F848EA0505CE78282E00D1FB
:100450004461CE78482E00D10461521C082AE3D3AF
:100460004560BDE8F0810246002092680A4200D053
:100470000120704741617047016170477CB50546B6
:1004800000200190009000F093F84FF48034204653
:1004900000F02EF900F076F900900098012800D0C5
:1004A000FEE71020FFF776FF0220FFF77FFF002016
:1004B00000F014F9002000F041F94FF4806000F0E2
:1004C00033F92946204600F049F9012000F040F9AF
:1004D000392000F0E3F80028FAD0022000F048F9B3
:1004E00000F0F4F80828FBD17CBDFEE7FEE770477A
:1004F00008B54FF4A06000F041F825208DF8000009
:1005000001208DF801008DF802008DF80300684687
:1005100000F002F808BD000070B50F23C278012674
:100520000178002A1ED0144A126802F4E062C2F573
:10053000E062120AC2F10404D3404578A5408278F3
:100540001A402A43120101F1E02181F800240078C9
:1005500000F01F018E404009800000F1E020C0F84B
:10056000006170BD01F01F0086404809800000F165
:10057000E020C0F8806170BD0CED00E00249084346
:1005800002490860704700000000FA050CED00E029
:1005900070470000054A002903D091690143916129
:1005A00070479169814391617047000000100240DB
:1005B0000C48016841F00101016041680A4A11409C
:1005C00041600168094A11400160016821F48021FD
:1005D0000160416821F4FE0141604FF41F01816018
:1005E00070470000001002400000FFF8FFFFF6FE19
:1005F00010B5264A516801F00C01254B002927D07F
:10060000042927D0082927D00360516801F0F001A0
:100610000909204B5C5C0168E1404160546804F4C6
:10062000E064240A1C5D21FA04F48460546804F434
:100630006054E40A1B5DD940C160526802F4404234
:10064000920B144B1B1F9A5CB1FBF2F1016110BDC0
:100650000360DAE70360D8E7516801F4701153686A
:1006600003F48033022404EB914133B153689B03BC
:1006700007D5094B59430160C7E7074B5943016050
:10068000C3E7034B59430160BFE70000001002407D
:1006900000127A001800002000093D0003460020E7
:1006A0005909094A01290AD002290AD0516A03F0DE
:1006B0001F02012393400B4200D0012070471168B4
:1006C000F5E7116AF3E700000010024002484068B5
:1006D00000F00C007047000000100240034A51680F
:1006E00021F0F0010143516070470000001002400A
:1006F0000C490A6822F480320A600A6822F48022D7
:100700000A60B0F5803F07D0B0F5802F03D10868AC
:1007100040F4A02008607047086840F4803008600A
:100720007047000000100240034A516821F4E06164
:10073000014351607047000000100240034A5168B5
:1007400021F4605141EAC00050607047001002403F
:10075000014908667047000000004242034B5A6896
:1007600022F47C1208431043586070470010024086
:10077000034A516821F003010143516070470000B2
:100780000010024018B5002000904FF4A064312002
:10079000FFF784FF0099491C00910099A14201D004
:1007A0000028F4D03120FFF779FF08B1012018BDEF
:1007B000002018BD704700F001B800000CB5002201
:1007C000019200922748016841F4803101604FF4A2
:1007D000A063016801F4003100910199491C019165
:1007E000009911B901999942F3D10168890302D5A1
:1007F0000121009100E000920099012930D11A49AD
:100800000A6842F010020A600A6822F003020A60D5
:100810000A6842F002020A60416841604168416032
:10082000416841F480614160416821F47C1141607C
:10083000416841F4E8114160016841F08071016054
:1008400001688901FCD5416821F0030141604168DC
:1008500041F0020141604168C1F381010229FAD1EE
:100860000CBD0000001002400020024001B5084805
:10087000009901604FF0E022116941F0010111611E
:1008800001680029FCD1106920F00100106108BD49
:100890002800002000F04EB80F4810490068B0FB57
:1008A000F1F04FF0E021B0F1807F01D301200BE0A7
:1008B00020F07F40401E4861094AF020107000205F
:1008C000886107200861002000B1FEE7086920F078
:1008D00001000861704700000000002040420F0046
:1008E00023ED00E010B50F48016841F001010160FF
:1008F00041680D4A1140416001680C4A1140016095
:10090000016821F480210160416821F4FE01416009
:100910004FF41F018160FFF74EFF05494FF0006063
:10092000086010BD001002400000FFF8FFFFF6FE57
:1009300008ED00E003480168002902D00168491E63
:100940000160704728000020002904D0818941F40B
:10095000005181817047818921F400518181704764
:100960000246002012880A4200D00120704710B5CC
:1009700040F66A13C1F3421301F01F040121A140A4
:10098000012B07D0022B07D014303AB102680A437A
:10099000026010BD0C30F8E71030F6E702688A43B9
:1009A000026010BD30B585B004460D46208A4CF675
:1009B000FF710840E98801432182A0894EF6F311B6
:1009C0000840A9882A8911436A8902431143A181F9
:1009D000A08A4FF6FF410840A9890143A1826846D9
:1009E000FFF706FE1D48844201D1039800E00298FB
:1009F000A189090408D500EBC00101EB00102968AA
:100A00004900B0FBF1F007E000EBC00101EB001082
:100A100029688900B0FBF1F06422B0FBF2F1090112
:100A20000B096FF018056B4300EB8300A3891D04CD
:100A30004FF0320307D503EBC000B0FBF2F000F03B
:100A40000700084306E003EB0010B0FBF2F000F0F3
:100A50000F000843208105B030BD00000038014080
:100A6000C1F3080181807047FEE7000010B586B031
:100A700001210420FFF78EFD01218803FFF78AFD85
:100A80004FF40070ADF8140018208DF81700032003
:100A90008DF81600184C05A92046FFF791FC21158A
:100AA000ADF8141004218DF8171005A92046FFF7A2
:100AB00087FC4FF4E13001900020ADF80800ADF85C
:100AC0000A00ADF80C00ADF810000C20ADF80E00D7
:100AD0000A4C01A92046FFF765FFFFF709FD012237
:100AE00040F225512046FFF742FF01212046FFF743
:100AF0002BFF06B010BD0000000801400038014087
:100B000010B504462046FFF7ABFF80212046FFF7D3
:100B100027FF0028F9D010BD70B506460D46002409
:100B20003046295DFFF7ECFF285D0028F8D1402111
:100B30003046FFF715FF0028F9D070BD0FB4054B04
:100B400010B503A9044A029800F018F810BC5DF82B
:100B500014FB0000D10C00082C00002002E008C8A3
:100B6000121F08C1002AFAD170477047002001E027
:100B700001C1121F002AFBD1704700002DE9FF4F71
:100B800089B09B460446002506E025280BD05A462E
:100B90000B999047641C6D1C20780028F5D10DB08E
:100BA0002846BDE8F08F0027B8460122474900E0FB
:100BB000074314F8013F203B02FA03F00842F7D143
:100BC00020782E2819D114F8010F47F004072A289D
:100BD0000ED06FF02F022078A0F1300109290CD837
:100BE00008EB880102EB410100EB0108641CF2E70D
:100BF0000A98641C50F8048B0A9020780028CED004
:100C0000642808D0692806D075281ED05A460B994A
:100C100090476D1C58E00A994FF00A0901C90A91E2
:100C2000002802DA40422D2102E0390504D52B21AB
:100C30008DF82010012103E0F90704D02021F7E707
:100C40008A4608AE0DE00021FAE70A994FF00A093A
:100C500001C90A91F7E74946FFF786FA303106F8ED
:100C6000011D0028F7D1ADEB060000F1200978073F
:100C700001D44FF00108C84502DDA8EB090000E0EF
:100C800000208046002706E008A85A46C05D0B9960
:100C900090476D1C7F1C5745F6DB04E030205A4618
:100CA0000B9990476D1CB8F10001A8F10108F5DC23
:100CB00005E016F8010B5A460B9990476D1CB9F1E7
:100CC0000001A9F10109F4DC641C65E709280100B1
:100CD00070B50446064DE1B22846FFF7C1FE8021FB
:100CE0002846FFF73DFE0028F9D0204670BD0000E1
:100CF000003801400EB54FF4E010FFF7BFFBFFF7DF
:100D0000CBFD4FF4A060FFF739FCFFF7AFFEFFF714
:100D100053FAFFF78BFA15A11948FFF7FDFE194C9E
:100D2000194D206880F0200020602846FFF79EFDC6
:100D3000216881F0200121602846FFF797FD01A876
:100D4000FFF7D8FA012803D010A0FFF7F7FEE8E775
:100D50009DF8070000909DF806309DF805209DF84D
:100D600004100FA0FFF7EAFEDBE70000B3CCD0F2DF
:100D7000B3F5CABCBBAFCDEAB1CF2F722F6E000066
:100D8000003801400C0C014040420F005265616484
:100D9000204448543131204552524F52210D0A000F
:100DA0000D0AB6C1C8A14448543131B3C9B9A6210E
:100DB0000D0A0D0ACAAAB6C8CEAA25642E2564203B
:100DC000A3A5524820A3ACCEC2B6C8CEAA202564A3
:100DD0002E2564A1E6200D0A00000000FC0D00088D
:100DE00000000020300000005C0B00082C0E000802
:100DF00030000020000400006C0B000800A24A0430
:100E000000000000000000000102030406070809BA
:100E100002040608000000000102030401020304AA
:0C0E2000060708090000000000000000A8
:0400000508000131BD
:00000001FF
