:020000040800F2
:10000000C0050020450100087511000871110008A5
:10001000731100083D0C0008CD1900080000000015
:10002000000000000000000000000000B115000802
:100030003B0E000800000000151200089116000891
:100040005F0100085F0100085F0100085F01000810
:100050005F0100085F0100085F0100085F01000800
:100060005F0100085F0100085F0100085F010008F0
:100070005F0100085F0100085F0100085F010008E0
:100080005F0100085F0100085F0100085F010008D0
:100090005F0100085F0100085F0100085F010008C0
:1000A0005F0100085F0100085F0100085F010008B0
:1000B0005F0100085F0100085F0100085F010008A0
:1000C0005F0100085F0100085F0100085F01000890
:1000D0005F0100085F0100085F0100085F01000880
:1000E0005F0100085F0100085F0100085F01000870
:1000F0005F0100085F0100085F0100085F01000860
:100100005F0100085F0100085F0100085F0100084F
:100110005F0100085F0100085F0100085F0100083F
:100120005F0100085F0100085F0100085F0100082F
:10013000DFF80CD000F022FC0048004765220008E0
:10014000C00500200648804706480047FEE7FEE756
:10015000FEE7FEE7FEE7FEE7FEE7FEE7FEE7FEE777
:10016000E116000831010008F0B480EA0102D40F62
:100170004200B2EB410F02D20246084611464A0045
:1001800042D0C30DDDB2C1F3C752AD1A202D35DA0E
:10019000C1F3160141F4000204B15242C5F1200638
:1001A00002FA06F12A411044B3EBD05F23D0C4B168
:1001B000012DA0EBC35009DCF0BC4FF0004202EA75
:1001C000C352DBB200F5000000F04DBB400000F16F
:1001D000807000EBC350A0F1807040EAD1704900FC
:1001E00009E0490841EAC071A0EBC35000F50000E6
:1001F000400800EBC350F0BC00F02CBB6142012270
:1002000002EB4101001BF6E7F0BC704781F00041B2
:10021000AAE780F00040A7E780EA010210B502F0EB
:100220000043400022D04A001FD0010E01EB1261B2
:10023000C0F35600C2F3560240F4000042F400023C
:10024000A0FB022000047F39140400D0401C50EAB7
:10025000124001D44000491EC2B20C0604EBD0107B
:10026000401C4008802A02D003E0002010BD20F08E
:100270000100002900DA0020184310BD30B480EAE4
:10028000010202F0004530F0004221F0004013D09E
:1002900090B1C30DD40DC2F31601C0F31600E41AD9
:1002A00041F4000140F400027D34914201D3641C0A
:1002B00000E04900002C02DA30BC002070474FF407
:1002C00000000023914201D3891A034340084FEAFA
:1002D0004101F7D151B1914202D14FF0004105E007
:1002E00002D24FF0010101E06FF0010103EBC450B5
:1002F000284430BC00F0AEBA2DE9FE4F804681EABA
:100300000300C00F0C46009021F0004123F000458F
:10031000B8EB0200A94105D24046214690461C4652
:100320000B46024623F00040104347D0270DC7F389
:100330000A00C3F30A510290401A019040286BDA78
:10034000C3F3130040F4801B0098924620B10023B1
:10035000D2EB030A63EB0B0B01985946C0F1400244
:10036000504600F046FA06460D4650465946019A58
:1003700000F05EFA10EB08006141002487EA115298
:1003800084EAE7731A4340D0009A62B3019A012AC3
:100390004FEA075215DC001B61EB02014FF00042EF
:1003A00002EA0752CDE90042001C41F580113246B5
:1003B0002B4600F095FA03B0BDE8F08F4046214689
:1003C000F9E7001B61EB0201001C41F580130018E6
:1003D0005B412018A2F5001747EB030140EAD570F6
:1003E000B6196D4111E06D084FEA360645EAC07551
:1003F0004FEA0752001B61EB0201001C41F580111E
:1004000049084FEA30000019514132462B4603B0EB
:10041000BDE8F04F00F055BA0098012240000023DB
:10042000D0EB020263EBE073009821464FEAE074E0
:10043000B8EB000061EB0401E9E783F000435BE700
:1004400081F0004158E72DE9FE4F81EA030404F0F2
:10045000004421F0004100944FF0000B23F00043D2
:1004600050EA01045ED052EA03045BD0C3F30A549D
:10047000C1F30A552C44A4F2F3340194A0FB0254B6
:10048000C1F3130141F48011C3F3130343F4801348
:1004900001FB024400FB034E840A970A44EA81549C
:1004A00047EA8357A4FB076802958D0A05FB078579
:1004B0004FEA932C04FB0C542705029D4FEA065883
:1004C00047EA1637B5EB08056EEB070C870E920E60
:1004D00047EA811742EA8312A7FB0201B6EB0B0140
:1004E00064EB00042B0D43EA0C335E1844EB1C5004
:1004F000DA465146E7FB0201C5F313044FEA0B331A
:1005000043EA14534FEA0432019C43EA0603A4F180
:100510000C040294009CCDE900B400F0E1F903B0B2
:10052000BDE8F08F00200146F9E72DE9F04D81EAA2
:10053000030404F0004B21F0004514464FF0000A7C
:1005400023F0004150EA050220D054EA01021DD0F8
:10055000C5F30A570246C5F31303C1F31300C1F3F1
:100560000A5640F4801543F48013A7EB0608101BCD
:10057000D64608F2FD3873EB050002D308F10108F6
:1005800001E092185B41B8F1000F03DA0020014648
:10059000BDE8F08D00204FF48011064684460EE041
:1005A000171B73EB050705D3121B63EB050306430B
:1005B0004CEA010C49084FEA300092185B4150EABE
:1005C0000107EDD152EA030012D082EA040083EA67
:1005D0000501084305D0101BAB4106D201220023C0
:1005E00006E000224FF0004302E06FF001025310DA
:1005F0001AEB06004CEB085110EB0A0041EB0B0123
:10060000BDE8F04D00F05DB970B521F00043034343
:100610000CD0C1F30A550024D5EB040564EB0403A8
:10062000D617AD1AB34102DB0020014670BD201879
:1006300041EB025170BD96230022114600F013B920
:100640000EB5C10F80EAE0700844CA07002140F2ED
:1006500033438DE80E000A460B4600F041F903B023
:1006600000BD0EB540F2334102910021CDE90011E9
:100670000A460B4600F034F903B000BD00F000421A
:1006800020F00040C10DC0F3160040F400007F29A7
:1006900001DA00207047962903DCC1F19601C840B9
:1006A00001E096398840002AF4D04042704720F09B
:1006B0000040C10DC0F3160040F400007F2901DAAC
:1006C00000207047962903DCC1F19601C8407047AD
:1006D000963988407047C1F30A5210B5C1F313012F
:1006E00040F2FF3341F480119A4201DA002010BD3C
:1006F00040F233439A42A2F2334203DC524200F00A
:1007000087F810BD904010BD00F0004230F000406E
:100710000AD0C10D01F56071C0F3160042EA015123
:10072000C20840071143704700200146704701F09E
:10073000004330B421F0004150EA010206D00A0D16
:10074000A2F56072C1F31301002A02DC30BC002064
:100750007047440F44EAC104C100E01830BC00EB0C
:10076000C25000F077B80000002801DBC0F1004063
:10077000002901DBC1F1004181427047002801DB03
:10078000C0F10040002901DBC1F1004188427047FF
:100790002DE9F05F0546002092469B4688460646B6
:1007A000814640241BE0284641464746224600F049
:1007B0002FF853465A46C01A914110D31146184695
:1007C000224600F016F82D1A67EB01084F46224624
:1007D0000120002100F00DF817EB00094E41201E0A
:1007E000A4F10104DFDC484631462A464346BDE811
:1007F000F09F202A04DB203A00FA02F10020704723
:100800009140C2F1200320FA03F31943904070474E
:10081000202A04DB203A21FA02F00021704721FA55
:1008200002F3D040C2F120029140084319467047BC
:10083000202A06DBCB17203A41FA02F043EAE073A4
:1008400006E041FA02F3D040C2F120029140084391
:10085000194670470029A8BF7047401C490008BFCF
:1008600020F00100704710B4B0FA80FC00FA0CF0E0
:1008700050EA010404BF10BC704749B1CCF1200418
:1008800021FA04F411FA0CF118BF012121430843A5
:10089000A3EB0C01CB1D4FEA00614FEA102042BFD1
:1008A000002010BC704700EBC35010440029A4BFC7
:1008B00010BC7047401C490008BF20F0010010BC6C
:1008C000704710B5141E73F1000408DA401C41F1A2
:1008D000000192185B411A4301D120F0010010BDC4
:1008E0002DE9F04D92469B4611B1B1FA81F202E03A
:1008F000B0FA80F220329046FFF77BFF04460F46A5
:1009000040EA0A0041EA0B0153465A46084313D015
:10091000114653EA010019D0C8F140025046FFF7D2
:1009200077FF05460E46504659464246FFF761FF9F
:10093000084305D0012004E020463946BDE8F08D8B
:100940000020054346EAE0762C4337430A986305C6
:10095000E40AA0EB08000022FD0A44EA47540A30EA
:1009600002D500200146E9E7010510196941DDE9DA
:10097000084500196941BDE8F04DA2E7064C074D56
:1009800006E0E06840F0010394E80700984710345F
:10099000AC42F6D3FFF7D0FB1C2700083C27000829
:1009A00010B50121084600F041FC0121BDE81040CE
:1009B000480200F057BC000070B590B02B4805907D
:1009C0002B480690002407940125089509940A9461
:1009D00028020B9080000C9020200D9000020E90B9
:1009E0000F94244E05A9304600F008FA0121304644
:1009F00000F0E4F900948DF804508DF805504FF4A0
:100A00006020029003948DF81050184C69464C3CBD
:100A1000204600F057F84FF4404000F0FDFB07235C
:100A200001221021204600F071F8012000F0BEF8EC
:100A30000121204600F02CF80121204600F01CF88E
:100A4000204600F09DF8204600F035F80028FAD145
:100A5000204600F0A6F8204600F026F80028FAD13B
:100A60000121204600F091F810B070BD4C240140E7
:100A70003000002008000240002904D0816841F0C5
:100A8000010181607047816821F001018160704738
:100A9000002904D0816841F48071816070478168C9
:100AA00021F4807181607047014600208968490700
:100AB00000D501207047014600208968090700D54C
:100AC0000120704710B542680E4B1A400C790B6834
:100AD00042EA04221343436082680B4B1A40D1E977
:100AE000024323434C7942EA440213438360C26ABF
:100AF00022F47002097C491EC9B242EA0151C16266
:100B000010BD0000FFFEF0FFFDF7F1FF70B50726F6
:100B100009290AD9C568A1F10A0404EB4404A640D6
:100B2000B543A3401D43C56007E0056901EB4104DF
:100B3000A640B543A3401D4305611F23072A09D2E0
:100B4000446B521E02EB820293409C4391400C4343
:100B5000446370BD0D2A09D2046BD21F02EB8202DE
:100B600093409C4391400C43046370BDC46A0D3AAA
:100B700002EB820293409C4391400C43C46270BDDF
:100B8000816841F0080181607047002904D08168C4
:100B900041F4A00181607047816821F4A001816067
:100BA0007047816841F00401816070470649002860
:100BB00004D0086840F4000008607047086820F41A
:100BC000000008607047000008240140F8B50121CA
:100BD000082000F047FB10248DF8034003258DF812
:100BE00002502020ADF80000134E6946304600F058
:100BF0003BF98DF803408DF802500120ADF800005C
:100C00006946304600F030F98DF803408DF8025007
:100C1000E401ADF800406946304600F025F9202196
:100C2000304600F07DF90121304600F079F9214687
:100C3000304600F075F9F8BD000C0140FEE70000F9
:100C400010B50121402000F00DFB00F01BF8BDE8BD
:100C500010404021014800F063B900000018014035
:100C600008B548208DF803004020ADF800000320AF
:100C70008DF802006946024800F0F6F808BD000051
:100C80000018014008B510208DF803004020ADF891
:100C9000000003208DF802006946024800F0E4F8E5
:100CA00008BD0000001801402DE9F0410025002496
:100CB000144F01264021384600F029F90028F9D0C8
:100CC000282000F0D1FC4021384600F020F901280E
:100CD0000BD0C4F1070006FA00F08543641CE4B2AF
:100CE000082CE7D32846BDE8F081C4F1070006FAD6
:100CF00000F0C0B205434021384600F008F9012851
:100D0000F9D0EBE70018014070B50446FFF7BAFFD1
:100D1000234D4021284600F001F944F2506000F0D4
:100D2000A3FC4021284600F0FBF81E2000F09CFCAC
:100D3000FFF796FF4021284600F0E9F808B10020AF
:100D400070BD4021284600F0E2F80028F9D040218B
:100D5000284600F0DCF80128F9D0FFF7A5FF207045
:100D6000FFF7A2FF6070FFF79FFFA070FFF79CFFE7
:100D7000E070FFF799FF2071FFF784FF40212846BC
:100D800000F0CEF820786178E2780844A178114428
:100D900008442179884201D1012070BD002070BD36
:100DA00000180140C10002D502490860704702499D
:100DB000486070470404024000000240002904D04B
:100DC000016841F001010160704701684FF6FE7251
:100DD000114001607047000002460020D10002D59A
:100DE0000449096801E004490968114200D0012062
:100DF00070470000000402400000024030B5026865
:100E000047F6F0739A430C6A8B682343D1E9044593
:100E10002C4323438C692343CC6923434C6A2343EB
:100E20008C6A234313430360CA6842600A68826085
:100E30004968C16030BD41607047704704490A6825
:100E400022F010020A600A6802430A60704700003C
:100E500000200240034A116801F03801014311608B
:100E600070470000002002402DE9F0410022CC78BC
:100E700004F00F03E40601D58C7823430C784FF07F
:100E80000F0714F0FF0F4FF0010C1CD005680CFA8F
:100E900002F40E882640A64211D1960007FA06F801
:100EA00025EA080503FA06F848EA0505CE78282E53
:100EB00002D0482E02D002E0446100E00461521CDE
:100EC000082AE4D305600A88FF2A1ED94568002253
:100ED00002F108060CFA06F40E882640A64210D14C
:100EE000960007FA06F825EA080503FA06F848EA24
:100EF0000505CE78282E00D14461CE78482E00D149
:100F00000461521C082AE3D34560BDE8F081024623
:100F1000002092680A4200D001207047416170476A
:100F2000016170470549096801600449091F0968A2
:100F3000416002490839096881607047F0F7FF1F76
:100F40007CB5054600200190009000F099F94FF41F
:100F50008034204600F034FA00F07CFA00900098CB
:100F6000012800D0FEE71020FFF768FF0220FFF7FE
:100F700071FF002000F01AFA002000F047FA4FF449
:100F8000806000F039FA2946204600F04FFA01202F
:100F900000F046FA392000F0E9F90028FAD00220E2
:100FA00000F04EFA00F0FAF90828FBD17CBD0000F1
:100FB0002DE9FF5F8246DDE90E781E465046FFF7B9
:100FC0005DFB3C2190FBF1F0062190FBF1F201FB6F
:100FD00012094846FFF734FB04460D465046FFF71A
:100FE00093FB0022604BFFF7A0FA22462B46FFF747
:100FF00024FAFFF79CFB04464FF07E5B58460199AC
:10100000FFF704F90299FFF707F905462046019911
:10101000FFF702F95946FFF7FCF80299FFF7FCF8D1
:10102000824621465846FFF7F1F80199FFF7F4F898
:101030005946FFF7EEF80299FFF7EEF883464B4C5E
:10104000B9F1060F1AD2DFE809F0031B32496077C5
:1010500021460298FFF7E0F8FFF729FB30702146A0
:101060005846FFF7D9F8FFF722FB3870214628468B
:10107000FFF7D2F8FFF71BFB88F80000BDE8FF9FE1
:1010800021465046FFF7C8F8FFF711FB30702146A4
:101090000298FFF7C1F8FFF70AFB3870214628468F
:1010A000FFF7BAF8FFF703FB88F80000E6E72146F0
:1010B0002846FFF7B1F8FFF7FAFA30702146029898
:1010C000FFF7AAF8FFF7F3FA387021465846FFF702
:1010D000A3F8FFF7ECFA88F80000CFE7214628468E
:1010E000FFF79AF8FFF7E3FA307021465046FFF712
:1010F00093F8FFF7DCFA387021460298FFF78CF876
:10110000FFF7D5FA88F80000B8E721465846FFF700
:1011100083F8FFF7CCFA307021462846FFF77CF8B9
:10112000FFF7C5FA387021460298FFF775F8FFF708
:10113000BEFA88F80000A1E721460298FFF76CF894
:10114000FFF7B5FA307021462846FFF765F8FFF73C
:10115000AEFA387021465046FFF75EF8FFF7A7FA5F
:1011600088F800008AE7000000004E4000007F433E
:10117000FEE7FEE7704708B54FF4A06000F040F8C6
:1011800025208DF8000001208DF801008DF8020067
:101190008DF80300684600F001F808BD70B50F2314
:1011A000C27801260178002A1ED0144A126802F47F
:1011B000E062C2F5E062120AC2F10404D34045784D
:1011C000A54082781A402A43120101F1E02181F8FA
:1011D0000024007800F01F018E404009800000F1DB
:1011E000E020C0F8006170BD01F01F008640480992
:1011F000800000F1E020C0F8806170BD0CED00E0DF
:101200000249084302490860704700000000FA05DF
:101210000CED00E070470000034A516821F44041A2
:10122000014351607047000000100240054A002948
:1012300003D0516901435161704751698143516144
:101240007047000000100240054A002903D0D16910
:101250000143D1617047D1698143D161704700007A
:1012600000100240054A002903D0916901439161B1
:1012700070479169814391617047000000100240FE
:101280000C48016841F00101016041680A4A1140BF
:1012900041600168094A11400160016821F4802120
:1012A0000160416821F4FE0141604FF41F0181603B
:1012B00070470000001002400000FFF8FFFFF6FE3C
:1012C00010B5264A516801F00C01254B002927D0A2
:1012D000042927D0082927D00360516801F0F001C4
:1012E0000909204B5C5C0168E1404160546804F4EA
:1012F000E064240A1C5D21FA04F48460546804F458
:101300006054E40A1B5DD940C160526802F4404257
:10131000920B144B1B1F9A5CB1FBF2F1016110BDE3
:101320000360DAE70360D8E7516801F4701153688D
:1013300003F48033022404EB914133B153689B03DF
:1013400007D5094B59430160C7E7074B5943016073
:10135000C3E7034B59430160BFE7000000100240A0
:1013600000127A001800002000093D00034600200A
:101370005909094A01290AD002290AD0516A03F001
:101380001F02012393400B4200D0012070471168D7
:10139000F5E7116AF3E700000010024002484068D8
:1013A00000F00C007047000000100240034A516832
:1013B00021F0F0010143516070470000001002402D
:1013C0000C490A6822F480320A600A6822F48022FA
:1013D0000A60B0F5803F07D0B0F5802F03D10868D0
:1013E00040F4A02008607047086840F4803008602E
:1013F0007047000000100240034A516821F4E06188
:10140000014351607047000000100240034A5168D8
:1014100021F4605141EAC000506070470010024062
:10142000014908667047000000004242034B5A68B9
:1014300022F47C12084310435860704700100240A9
:10144000034A516821F003010143516070470000D5
:101450000010024018B5002000904FF4A064312025
:10146000FFF784FF0099491C00910099A14201D027
:101470000028F4D03120FFF779FF08B1012018BD12
:10148000002018BD2DE9F05F884616461C460A9FCD
:10149000FFF7D1F8434D2946FEF7F0FE814640465E
:1014A000FFF7C9F82946FEF7E9FE82463046FFF706
:1014B000C2F82946FEF7E2FE8046424651464846BB
:1014C00000F0D4FF054642465146484600F0E4FF8E
:1014D00001462846FEF79AFE064616F0FF4F4FF0EB
:1014E000000B15D049462846FFF73EF922D1414668
:1014F0005046FFF743F90ED841465046FEF786FEA8
:101500003146FEF7BBFE2849FEF786FE20603AE032
:10151000C4F800B037E041465046FEF777FE31464A
:10152000FEF7ACFE2049FEF777FE2049FEF71CFED1
:10153000206028E051462846FFF716F90FD14946AA
:101540004046FEF763FE3146FEF798FE4FF08041BD
:10155000FEF70AFE1449FEF75FFE206013E04146E5
:101560002846FFF701F90ED151464846FEF74EFED8
:101570003146FEF783FE4FF08141FEF7F5FD0A4943
:10158000FEF74AFE206015F0FF4F08D0294630468E
:10159000FEF774FE38600B980560BDE8F09FC7F851
:1015A00000B0F8E700007F43000070420000B44341
:1015B000704700F001B800000CB5002201920092C3
:1015C0002748016841F4803101604FF4A06301684D
:1015D00001F4003100910199491C0191009911B960
:1015E00001999942F3D10168890302D50121009143
:1015F00000E000920099012930D11A490A6842F0AE
:1016000010020A600A6822F003020A600A6842F0C7
:1016100002020A604168416041684160416841F4EA
:1016200080614160416821F47C114160416841F46E
:10163000E8114160016841F0807101600168890131
:10164000FCD5416821F003014160416841F002018D
:1016500041604168C1F381010229FAD10CBD00004B
:10166000001002400020024001B5084800990160C6
:101670004FF0E022116941F0010111610168002978
:10168000FCD1106920F00100106108BD2C00002081
:1016900000F002B90F4810490068B0FBF1F04FF0BC
:1016A000E021B0F1807F01D301200BE020F07F40EA
:1016B000401E4861094AF020107000208861072010
:1016C0000861002000B1FEE7086920F00100086110
:1016D000704700000000002040420F0023ED00E0B2
:1016E00010B50F48016841F00101016041680D4AE1
:1016F0001140416001680C4A11400160016821F409
:1017000080210160416821F4FE0141604FF41F0116
:101710008160FFF74EFF05494FF00060086010BD83
:10172000001002400000FFF8FFFFF6FE08ED00E0A9
:10173000002904D0018841F001010180704701882F
:1017400021F0010101807047002A03D082890A43F9
:101750008281704782898A438281704770B5028C8A
:1017600022F480720284028C8388848B24F07004BB
:1017700024F003040D88254322F400720E894FF6ED
:10178000FF7404EA062616434A8804EA022232431A
:10179000114EB04202D0114EB04217D122F4006671
:1017A0004A8904EA0222324322F480668A8804EAE3
:1017B0000222324323F4805323F400538E8904EA37
:1017C00006161E43CB8904EA0313334383808583C3
:1017D000C9888187028470BD002C0140003401401B
:1017E000828B22F008020A438283704730B5028858
:1017F0001B4C1C4DA0420DD0A8420BD0B0F1804F25
:1018000008D0194B984205D0184B984202D0184B7B
:10181000984203D122F070034A881A43154B98422C
:1018200006D0154B984203D022F44073CA881A435D
:1018300002808A8882850A880285A0420AD0A8424E
:1018400008D00E4A904205D00D4A904202D00D4A6F
:10185000904201D1097A01860121818230BD0000C8
:10186000002C01400034014000040040000800400A
:10187000000C0040001000400014004000400140F7
:10188000004401400048014010B5FFF789F8BDE869
:101890001040FFF791B8000003480168002902D00A
:1018A0000168491E016070472C000020002904D007
:1018B000818941F4005181817047818921F400516F
:1018C000818170470246002012880A4200D0012020
:1018D000704710B540F66A13C1F3421301F01F04BC
:1018E0000121A140012B07D0022B07D014303AB1BF
:1018F00002680A43026010BD0C30F8E71030F6E7CA
:1019000002688A43026010BD30B585B004460D46BA
:10191000208A4CF6FF710840E98801432182A089A2
:101920004EF6F3110840A9882A8911436A890243B7
:101930001143A181A08A4FF6FF410840A9890143C4
:10194000A1826846FFF7BCFC1D48844201D1039880
:1019500000E00298A189090408D500EBC00101EB61
:10196000001029684900B0FBF1F007E000EBC0016E
:1019700001EB001029688900B0FBF1F06422B0FB94
:10198000F2F109010B096FF018056B4300EB8300BE
:10199000A3891D044FF0320307D503EBC000B0FB51
:1019A000F2F000F00700084306E003EB0010B0FB84
:1019B000F2F000F00F000843208105B030BD0000B8
:1019C00000380140C1F3080181807047FEE7000044
:1019D00010B586B001210420FFF744FC01218803E3
:1019E000FFF740FC4FF40070ADF8140018208DF89C
:1019F000170003208DF81600184C05A92046FFF7A4
:101A000033FA2115ADF8141004218DF8171005A92B
:101A10002046FFF729FA4FF4E13001900020ADF89D
:101A20000800ADF80A00ADF80C00ADF810000C206D
:101A3000ADF80E000A4C01A92046FFF765FFFFF73D
:101A40009AFB012240F225512046FFF742FF012177
:101A50002046FFF72BFF06B010BD00000008014034
:101A60000038014010B504462046FFF7ABFF802147
:101A70002046FFF727FF0028F9D010BD70B50646B5
:101A80000D4600243046295DFFF7ECFF641C285DFD
:101A90000028F7D140213046FFF714FF0028F9D085
:101AA00070BD00002DE9F04389B00646C1F307453B
:101AB0000895C1F307200790CAB2069203A904ABA8
:101AC000CDE90031014605AB2846FFF7DBFC0025D8
:101AD000DFF8A080284F4FF0FF0938F81500B0FB61
:101AE000F9F109FB1100FEF7A6FD039006A907AA6C
:101AF000CDE900210246DDE9041008ABFFF758FAF2
:101B00009DF81C009DF82010000440EA01209DF87B
:101B100018100843C243002013E0002400EB4003E8
:101B200002FA04F1090201D53C2100E01E2104EB78
:101B3000C30C27F81C10641CE4B2182CF0D3401C12
:101B4000C0B2B042E9D300EB4000002104EBC0007A
:101B5000401C27F81010F0B200F084F84CF250301E
:101B6000FFF782FD6D1CADB2A62DB6D309B0BDE85E
:101B7000F0830000C42400083800002070B594B041
:101B8000054601210820FFF76DFB01210220FFF728
:101B90005BFB01210846FFF749FB18218DF84F1028
:101BA0000126ADF84C6003218DF84E1013A928488A
:101BB000FFF75AF90024ADF84040ADF842404FF429
:101BC0007A70454323480068B0FBF5F0401EADF83D
:101BD0004400ADF84640204D10A92846FFF706FE08
:101BE0006021ADF83010ADF83260ADF838400CA986
:101BF0002846FFF7B3FD08212846FFF7F1FD002135
:101C00002846FFF795FD0122D1022846FFF79CFDEB
:101C100011483C3001901148029010200390C020E0
:101C20000490059480200690400007908000089062
:101C3000099480000A900B94094C01A92046FFF7F3
:101C4000DDF800212046FFF7B9F814B070BD0000A0
:101C5000000C01400000002000040040380000207B
:101C60001C00024070B500EB40000121114C01EB5B
:101C7000C0012046FFF7DFF801212046FFF79EF85C
:101C80000D4D01212846FFF753FD2020FFF7A4F852
:101C90000128FAD100212046FFF790F82020FFF715
:101CA00081F800212846FFF743FDBDE8704000F0B1
:101CB00035B800001C00024000040040F0B4C1F33D
:101CC0000743C1F30724C9B2240444EA03260E43A0
:101CD0000021114C13E0002201EB410506FA02F34A
:101CE0001B0201D53C2300E01E2302EBC50724F8AC
:101CF0001730521CD2B2182AF0D3491CC9B2814203
:101D0000E9D301EB4101002302EBC101491C24F896
:101D10001130F0BCFFF7A6BF3800002010B500213D
:101D20000648FFF705FD01210548FFF7F7F8BDE874
:101D300010404FF47A70FFF797BC00000004004099
:101D4000000C0140F0B4C1F30742C1F30723C9B24C
:101D50001B0443EA02250D430021421E0E4C02EBF8
:101D6000420305FA01F2120201D53C2200E01E22D4
:101D700001EBC30724F81720491CC9B21829F0D376
:101D800006EB4603002201EBC301491C24F8112095
:101D9000F0BCFFF767BF0000380000200FB4054B10
:101DA00010B503A9044A029800F018F810BC5DF8B9
:101DB00014FB0000412200083400002002E008C8A3
:101DC000121F08C1002AFAD170477047002001E0B5
:101DD00001C1121F002AFBD1704700002DE9FF4FFF
:101DE0008DB00F460546002606E025280BD0DDE91C
:101DF0000F1290476D1C761C28780028F5D111B081
:101E00003046BDE8F08F0024A246A1460122EC49ED
:101E100000E0044315F8013F203B02FA03F00842BA
:101E2000F7D128782A2810D06FF02F022878A0F157
:101E30003001092914D80AEB8A0102EB410144F070
:101E4000020400EB010A6D1CF0E701CF5FEA000A13
:101E500003D544F40054CAF1000A44F002046D1C96
:101E600028782E2817D115F8010F44F004042A28E9
:101E70000ED06FF02F022878A0F1300109290AD87E
:101E800009EB890102EB410100EB01096D1CF2E74E
:101E900057F8049B6D1C28786C280FD006DC4C2862
:101EA00017D068280DD06A2814D104E0742810D007
:101EB0007A280FD10DE044F400140AE044F48014B1
:101EC00001E044F440146978814202D104F58014A1
:101ED0006D1C6D1C2A786E2A1FD00CDC632A31D051
:101EE00004DC002A8BD0582A11D1A3E0642A68D0E0
:101EF000692A0CD165E0732A2ED004DC6F2A73D0D6
:101F0000702A04D19BE0752A6FD0782A6ED01046D3
:101F1000DDE90F129047761C50E1C4F3025002280D
:101F200006D0032809D0042801CF09D0066045E176
:101F300001CFF117C0E9006140E101CF06803DE12A
:101F400006703BE117F8040B8DF8000000208DF8B7
:101F50000100EB46012003E057F804BB4FF0FF30CF
:101F600061074FF0000102D40DE008F1010188463D
:101F700049450FDA8045F8DB1BF808100029F4D139
:101F800008E008F1010188468142FADB1BF80810DD
:101F90000029F6D1DDE90F23AAEB0800814621468E
:101FA00000F036F9304400EB080604E0DDE90F12DA
:101FB0001BF8010B9047B8F10108F7D221464846BB
:101FC000F7E00A21C4F302534FF0000B0891022BF3
:101FD00004D001CFC117032B09D00AE0FF1D27F061
:101FE0000707F7E8020108E032E01FE020E000B256
:101FF000C117042B01D140B2C117031E71F10003B8
:1020000007DA4FF0000CD0EB0C006CEB01012D2334
:1020100002E0230504D52B238DF82430012303E0AF
:10202000E30701D02023F7E7984658E00A2110E0A3
:1020300010210EE010204FF0000B08900CE0102152
:102040004FF0000B44F004044FF00809089103E03E
:1020500008214FF0000B0891C4F30253022B04D067
:1020600001CF0021032B06D006E0FF1D27F0070754
:10207000F7E8020103E080B2042B00D1C0B24FF0B8
:10208000000823072BD5702A07D0DDF820C08CF07C
:10209000100C5CEA0B0C05D00EE040238DF82430C8
:1020A000012308E050EA010306D030238DF82430E4
:1020B0008DF8252002239846DDF820C08CF0080C0E
:1020C0005CEA0B0C0BD150EA010301D1630706D582
:1020D00030238DF824304FF00108A9F10109582A66
:1020E00004D038A20B9208AA0A920BE03AA2F9E7B0
:1020F0005B46089AFEF74CFB0B9B9B5C0A9A521EB0
:102100000A92137050EA0102F2D10A98ADEB000076
:1021100000F1200B600702D524F4803401E04FF079
:102120000109D94502DDA9EB0B0000E0002000EB1E
:102130000B0141440890AAEB010AE00306D4DDE953
:102140000F232146504600F063F806444FF0000983
:1021500008E009A911F80900DDE90F12904709F11B
:102160000109761CC145F4DBE0030CD5DDE90F2342
:102170002146504600F04CF8064404E0DDE90F1219
:1021800030209047761C0899481E08900029F5DCFD
:1021900008E00A980A990078491C0A91DDE90F12B3
:1021A0009047761CBBF10001ABF1010BF1DC21463D
:1021B0005046DDE90F2300F019F806446D1C1BE6BC
:1021C000092801003031323334353637383961620D
:1021D00063646566000000003031323334353637D1
:1021E0003839414243444546000000002DE9F041A2
:1021F000044600251E461746880404D405E03946E7
:102200002020B0476D1C641EF9D52846BDE8F0813A
:102210002DE9F041044600251E469046C80301D52D
:10222000302700E02027880404D505E041463846E1
:10223000B0476D1C641EF9D52846BDE8F08100004A
:1022400070B50446064DE1B22846FFF7BBFB80217E
:102250002846FFF737FB0028F9D0204670BD000064
:102260000038014086B04FF4E010FEF769FEFFF73A
:1022700011FA4FF4A060FEF7C3FFFFF7A9FBFEF7CA
:10228000A5FCFEF7DDFC01A8FEF74CFEFFF7FCFA0B
:1022900037A13C48FFF7F2FB4FF44870FFF76EFCA4
:1022A000394D3A4EDFF8E880DFF8E8A0DFF8E8B013
:1022B0004FF066376FF00B09286880F02000286027
:1022C000364C2046FFF7D0F93088FEF7CAF93A4677
:1022D0004346FEF7B8F84A46FEF796F952465B4683
:1022E000FEF7AEF800222E4BFEF7ADF84FF033327A
:1022F0002C4BFEF71AF900222B4BFDF7FDFFFEF7E2
:10230000EAF981B22948018029A0FFF747FD01A918
:102310002FA00EC9FFF742FD3748018837A0FFF70D
:102320003DFD04A8FEF7F0FC012813D03AA0FFF70A
:1023300035FD3E490820FFF7C1FC2046FFF794F920
:102340006FF07F410120FFF7FDFCFF210820FFF720
:10235000A9FBB1E79DF8130000909DF812309DF89D
:1023600011209DF8101032A0FFF718FDE1E70000E2
:10237000B3CCD0F2B3F5CABCBBAFCDEAB1CF0D0A36
:1023800000000000003801400C0C0140300000202B
:1023900066660A40E17A14AE47E1F63F40420F001C
:1023A00000408F40333311400000394028000020A6
:1023B0000D0A205468652049432063757272656E6A
:1023C000742074656D3D2025336420A1E60D0A005C
:1023D0000D0AD0BEC6ACB5C4CEA8D2BB4944CEAA65
:1023E0003A203078253038582D253038582D253072
:1023F00038580D0A00000000E0F7FF1F0D0AD0BE9C
:10240000C6AC666C617368B5C4C8DDC1BFCEAA3AFC
:102410002025644B200D0A00526561642044485415
:102420003131204552524F52210D0A00231FF10035
:102430000D0AB6C1C8A14448543131B3C9B9A62167
:102440000D0A0D0ACAAAB6C8CEAA25642E25642094
:10245000A3A5524820A3ACCEC2B6C8CEAA202564FC
:102460002E2564A1E6200D0A0000000070B5044688
:102470000E46154631462046FEF780F901D2204629
:1024800000E03046044629462046FEF777F901D29F
:10249000204670BD284670BD70B504460E461546F0
:1024A00031462046FEF760F901D2204600E0304672
:1024B000044629462046FEF757F901D2204670BD52
:1024C000284670BD0100010001000100010001006B
:1024D00001000100010001000100020002000200F1
:1024E00002000200020002000200020002000200DC
:1024F00002000200020003000300030003000300C7
:1025000003000300030003000400040004000400AF
:102510000400040004000500050005000500050096
:102520000600060006000600060007000700070078
:1025300007000800080008000900090009000A0057
:102540000A000A000B000B000C000C000D000D002F
:102550000E000E000F000F001000100011001200FE
:1025600012001300140014001500160017001800C4
:10257000190019001A001B001C001E001F0020007B
:1025800021002200240025002600280029002B001D
:102590002D002E00300032003400360038003A00A2
:1025A0003C003E0041004300460048004B004E0006
:1025B0005100540057005A005E0061006500690038
:1025C0006D00710075007A007E00830088008D0028
:1025D000920098009E00A400AA00B000B700BE00C0
:1025E000C500CD00D500DD00E500EE00F700FF00DE
:1025F000FF00F700EE00E500DD00D500CD00C500CE
:10260000BE00B700B000AA00A4009E00980092008F
:102610008D00880083007E007A00750071006D00D7
:102620006900650061005E005A00570054005100C7
:102630004E004B0048004600430041003E003C0075
:102640003A00380036003400320030002E002D00F1
:102650002B0029002800260025002400220021004C
:1026600020001F001E001C001B001A00190019008A
:1026700018001700160015001400140013001200B3
:1026800012001100100010000F000F000E000E00CD
:102690000D000D000C000C000B000B000A000A00DE
:1026A0000A000900090009000800080008000700E6
:1026B00007000700070006000600060006000600E7
:1026C00005000500050005000500040004000400E5
:1026D00004000400040004000300030003000300DE
:1026E00003000300030003000300020002000200D5
:1026F00002000200020002000200020002000200CA
:1027000002000200020001000100010001000100BE
:102710000100010001000100010001003C27000848
:102720000000002038000000BC1D000874270008CD
:102730003800002088050000CC1D000800A24A04D3
:102740000000000000000000010203040607080961
:102750000204060800000000010203040102030451
:10276000060708090000000000000000000000004B
:042770000000000065
:0400000508000131BD
:00000001FF
